:1000000012C02AC029C028C028C026C025C024C0CC
:1000100023C022C021C020C01FC01EC01DC01CC0E4
:100020001BC01AC019C011241FBECFEDCDBF10E0F8
:10003000A0E6B0E0EAEDF4E002C005900D92A03633
:10004000B107D9F710E0A0E6B0E001C01D92AD37CE
:10005000B107E1F704D13FC2D3CF1F920F920FB681
:100060000F9211242F933F934F935F938F939F93FE
:10007000AF93BF93EF93FF938091770088BB1DBC34
:100080001CBCE0917800F0E0EE0FFF1FE05AFF4F3C
:100090008081918189979BBD8ABD209179003091A3
:1000A0007A0040917B0050917C00E0917800F0E074
:1000B000EE0FFF1FE05AFF4F80819181A0E0B0E07A
:1000C000820F931FA41FB51F8093790090937A002D
:1000D000A0937B00B0937C00809178008F5F809329
:1000E0007800809172002091780090E002C0959590
:1000F00087952A95E2F780FD04C0809178008830CA
:1001000058F380917800883009F042C0109277004F
:1001100020917300309174004091750050917600E9
:100120008091790090917A00A0917B00B0917C0041
:1001300082179307A407B50740F52091730030910B
:1001400074004091750050917600809179009091F3
:100150007A00A0917B00B0917C00281B390B4A0BE0
:100160005B0B203080E0380781E0480780E05807CB
:1001700038F08FEF9FEF909371008093700037C03D
:10018000309371002093700032C089E08093780032
:1001900080917800893001F51092780010927900F2
:1001A00010927A0010927B0010927C0005C0809122
:1001B00078008F5F809378008091720020917800A2
:1001C00090E002C0959587952A95E2F780FD04C0DE
:1001D00080917800883058F32091780081E090E099
:1001E00002C0880F991F2A95E2F780937700FF914C
:1001F000EF91BF91AF919F918F915F914F913F91FF
:100200002F910F900FBE0F901F9018955F9BFECF00
:100210008CB10895EF92FF920F931F937B018C0195
:1002200024E630E040E050E034D19B01AC012233C1
:1002300031054105510540F084E690E0A0E0B0E0D2
:10024000E80EF91E0A1F1B1FE21AF30A040B150B16
:10025000B701C8011F910F91FF90EF9008950F9380
:100260001F93CF93DF938FEF87BB18BA81E08EBDCA
:1002700008B603FEFDCF24B535B588B7886088BFC2
:1002800008B603FEFDCF64B575B580E090E08160EF
:1002900040E050E0621B730B840B950B80709070F4
:1002A00024E630E040E050E0DBD02AE030E040E0FF
:1002B00050E0EFD0CA01B901ADDFE4E09695879533
:1002C00077956795EA95D1F7A5DF24E630E040E021
:1002D00050E0DFD0C901DA010197A109B10992B953
:1002E00089B980E18AB91092780010927700109253
:1002F000790010927A0010927B0010927C0080E0CE
:1003000091E7A0E0B0E08093730090937400A09315
:100310007500B09376001092720080EE9EE290938A
:1003200061008093600090936300809362009093DB
:1003300065008093640090936700809366009093BB
:1003400069008093680090936B0080936A0090939B
:100350006D0080936C0090936F0080936E0071E04D
:10036000C0E0D0E800E411E05F9BFECFECB1E930E3
:1003700071F55F9BFECF8CB180937200809172000B
:10038000882321F4F89418BA71E0EECF772361F353
:100390003091780010C08091720090E0232F277078
:1003A000022E02C0959587950A94E2F780FF02C05D
:1003B000209378003F5F303170F318BADBBDCABDBF
:1003C00009BF1EBD1DBC1CBC789470E0CDCFEA30C7
:1003D00081F55F9BFECF8CB15F9BFECF6CB15F9BC5
:1003E000FECF3CB15F9BFECF2CB190E0A0E0B0E02F
:1003F000BA2FA92F982F8827860F911DA11DB11DF7
:10040000BA2FA92F982F8827830F911DA11DB11DE9
:10041000BA2FA92F982F8827820F911DA11DB11DDA
:100420008093730090937400A0937500B09376004E
:100430009BCFE93008F098CF5F9BFECF9CB15F9BCC
:10044000FECF8CB1592F40E09A01280F311DC90110
:10045000F0E0EE0FFF1FE25AFF4F9183808384CFBD
:10046000FF27EE27BB27AA2760FF04C0A20FB31FF8
:10047000E41FF51F220F331F441F551F96958795C4
:100480007795679589F70097760771F7CF01BD01DA
:100490000895A1E21A2EAA1BBB1BFD010DC0AA1FC5
:1004A000BB1FEE1FFF1FA217B307E407F50720F0DD
:1004B000A21BB30BE40BF50B661F771F881F991F58
:1004C0001A9469F760957095809590959B01AC01A1
:0A04D000BD01CF010895F894FFCF9D
:00000001FF
