:100000000C9451010C946E010C946E010C946E01D1
:100010000C946E010C946E010C946E010C946E01A4
:100020000C946E010C946E010C946E010C945109A9
:100030000C946E010C946E010C946E010C946E0184
:100040000C946E010C946E010C946E010C946E0174
:100050000C941A230C946E010C94EF220C946E01F4
:100060000C946E010C946E010C946E010C946E0154
:100070004572726F72203D2025640A004469736BDB
:10008000204572726F720A0025730A0043757272FE
:10009000656E7420536F6E673A0A006125642063B1
:1000A00025640A00203E204F6E20202020202020A2
:1000B000202000203E204F66662020202020202087
:1000C000202000496E7665727420204F757470751B
:1000D000742000203E204D696E7574653A202564B9
:1000E000202000203E20486F75723A202564202091
:1000F000202000203E204461793A202573202020D2
:100100002020002043757272656E742054696D65FD
:100110002000203E204D696E7574653A20256420CC
:100120002000203E20486F75723A20256420202050
:100130002000203E204F6E20202020202020202044
:1001400000203E204F666620202020202020200016
:1001500020257320416C61726D202020202020001A
:100160002053687566666C652020202020200020C2
:100170004C6F6F7020202020202020202000204E57
:100180006F726D616C2020202020202000204D6F98
:10019000646520202020202020202000612564206C
:1001A000632564206D2564207325640A002053684C
:1001B0007566666C6520202020202000204C6F6F23
:1001C0007020202020202020202000204E6F726DE3
:1001D000616C2020202020202000204D6F646520AD
:1001E00020202020202020200025730A0025730ACB
:1001F0000050726576696F757320536F6E673A0AA7
:100200000053687566666C696E670A0025730A009C
:100210004E65787420536F6E673A0A001F1F1F00E7
:100220000000000000000000001F1F1F1F1F000033
:1002300000001F1F00000103030100000000101850
:100240001810000000040E15040404000004040447
:10025000150E0400FF00FFFF01FF00FF2001FF015A
:100260000002FFFF01010002FF0101FFFF01FF206B
:1002700020FFFF02000101FFFF0200FF01FF00005D
:10028000FF2020FFFF02FFFF01FFFF02FF0101FF30
:10029000202020202020202020202020202020205E
:1002A000000011241FBECFEFD0E1DEBFCDBF11E0B3
:1002B000A0E0B1E0E0E0F2E502C005900D92A437C5
:1002C000B107D9F715E0A4E7B1E001C01D92AC3F3A
:1002D000B107E1F70E9406070C94FE280C94700108
:1002E0001F920F920FB60F9211240F900FBE0F9016
:1002F0001F9018951092EE041092EF041092F004E3
:100300001092F10481E08093F2041092EA041092BA
:10031000EB041092EC041092ED041092E60410929B
:10032000E7041092E8041092E9041092DE0410929F
:10033000DF041092E0041092E1041092E2041092A3
:10034000E3041092E4041092E50483E88093B00083
:100350001092B30085E08093B100E0E7F0E0808187
:1003600081608083089560E070E080E090E008950F
:1003700081E08093F2041092EE041092EF04109248
:10038000F0041092F10408952F923F924F925F92E1
:100390006F927F928F929F92AF92BF92CF92DF9295
:1003A000EF92FF920F93DF93CF93CDB7DEB7A09775
:1003B0000FB6F894DEBF0FBECDBF6C01198261E0AD
:1003C00081E00E94591C61E08FE70E94FD1A62E003
:1003D00081E00E94591C61E085E00E94FD1A41E025
:1003E00062E08AED91E00E94631CD60111968C9127
:1003F000882329F442E062E08BEC91E00DC081306B
:1004000029F442E062E08CEB91E006C0823031F4E6
:1004100042E062E08DEA91E00E94631C62E080E1CC
:100420000E94591C61E086E00E94FD1A61E080E1B3
:100430000E94591C61E08EE70E94FD1ABB24AA2489
:100440007724739465E0862E61E0962E5BE3652E3B
:1004500043EE442E40E0542E33EF232E30E0332E73
:10046000CE0101960E944623082F7092F20410924A
:10047000EE041092EF041092F0041092F10429811E
:10048000222309F41AC28A2D90E09F938F938B2D1B
:1004900090E09F938F93802F90E09F938F93822F74
:1004A00090E09F938F93ECE9F1E0FF93EF9383E16A
:1004B00091E09F938F930E949C25ADB7BEB71C9689
:1004C0000FB6F894BEBF0FBEADBF023039F4BB20EB
:1004D00019F429E0B22E0EC0BA940CC0013039F4E0
:1004E000B9E0BB1611F4BB2405C0B39403C00530BA
:1004F00009F4EFC161E081E00E94591C61E08FE7DF
:100500000E94FD1A62E081E00E94591C61E085E0D2
:100510000E94FD1ABB20B9F541E062E08DE891E050
:100520000E94631C033011F0002341F4F601818125
:10053000823011F411820FC08F5F0AC0043059F469
:10054000F6018181882319F482E0818304C08150FF
:10055000D60111968C93F6018181882329F442E01B
:1005600062E08EE791E097C1813029F442E062E0D9
:100570008FE691E090C1823009F08FC142E062E0E5
:1005800080E691E088C1EB2DE150E73008F09FC094
:10059000EE2EFF24F701EE0FFF1FE05CFE4F80817F
:1005A000918198A38F8F61E082E00E94591CAF8DEA
:1005B000B8A1BF93AF93E0E5F1E0FF93EF939F9273
:1005C0008F920E949C258DB79EB706960FB6F89421
:1005D0009EBF0FBE8DBF002331F48A2D8F5F63E075
:1005E0000E945728A92EAA20E9F40350023048F4AB
:1005F000F601EE0DFF1D8281882311F4728201C085
:100600001282EC0CFD1CD70112968C91882329F4E0
:1006100042E062E081E491E03EC142E062E082E3D8
:1006200091E039C1B1E0AB1639F5033051F4F60170
:10063000EE0DFF1D8185873111F411860EC08F5F8D
:100640000BC0043051F4F601EE0DFF1D81858823A7
:1006500011F487E101C08150818762E082E00E944D
:10066000591CEC0CFD1CD70119968C9190E09F93BE
:100670008F93E2E2F1E0D8C092E0A91609F00DC133
:10068000033051F4F601EE0DFF1D80898B3311F418
:10069000108A0EC08F5F0BC0043051F4F601EE0DCE
:1006A000FF1D8089882311F4608A02C08150808BED
:1006B00062E082E00E94591CEC0CFD1CD7015096B0
:1006C0008C9190E09F938F93E2E1F1E0ADC098E0D0
:1006D000B91609F0B8C041E062E083E091E00E9401
:1006E000631C002331F48A2D8F5F63E00E9457283A
:1006F000A92EAA2009F03FC0033059F4D60157961D
:100700008C915797863019F457961C9211C08F5FC1
:100710000DC0043069F4D60157968C915797882301
:1007200021F486E057968C9303C08150F601878BA5
:10073000D6015796EC91F0E0EE0FFF1FE05CFE4F04
:10074000808191819E8F8D8F62E082E00E94591C92
:10075000AD8DBE8DBF93AF933F922F929F928F929C
:100760000E949C25EDB7FEB736960FB6F894FEBFF3
:100770000FBEEDBF92C0F1E0AF1659F5033069F43A
:10078000D60158968C915897873119F458961C9237
:1007900014C08F5FF601808F10C0043071F4D60151
:1007A00058968C915897882321F4E7E15896EC935A
:1007B00004C08150D60158968C9362E082E00E947A
:1007C000591CF601808D90E09F938F935F924F921A
:1007D0002DC092E0A91609F060C0033059F4D6018B
:1007E00059968C9159978B3319F459961C9210C0D5
:1007F0008F5F0CC0043061F4D60159968C915997E3
:10080000882319F459966C9203C08150F601818FA8
:1008100062E082E00E94591CD60159968C9190E0CA
:100820009F938F93E3EDF0E0FF93EF939F928F926E
:100830000E949C258DB79EB706960FB6F8949EBF72
:100840000FBE8DBF2AC099E0B91639F541E062E0CC
:1008500083EC90E00E94631C033021F0002311F030
:10086000043059F4D6015A968C915A97882319F47A
:100870005A967C9202C0F601128ED6015A968C913D
:10088000882329F442E062E083EB90E004C042E078
:1008900062E084EA90E00E94631C62E080E10E94D2
:1008A000591C61E086E00E94FD1A61E080E10E942F
:1008B000591C61E08EE70E94FD1AF601828D8823A3
:1008C00011F041E001C040E068E080E00E94BB1D03
:1008D000C7CDD60159966C91599758968C910E9424
:1008E000891BDE011296F6018BE101900D92815079
:1008F000E1F720E030E0AE014E5F5F4FF999FECFA7
:1009000032BD21BDF89A80B5FA01E20FF31FE081F4
:100910008E1759F0F999FECF1FBA32BD21BDE0BD47
:100920000FB6F894FA9AF99A0FBE2F5F3F4F2B310A
:10093000310521F7A0960FB6F894DEBF0FBECDBFEC
:10094000CF91DF910F91FF90EF90DF90CF90BF900C
:10095000AF909F908F907F906F905F904F903F905F
:100960002F900895FF920F931F93CF93DF93EC0185
:1009700061E070E080E290E00E94E023082FF92E11
:1009800010E0189BFECF60E2802F9F2D0E94071E73
:100990001F5F1830B1F7802F9F2D0E94A62440E0E2
:1009A00050E060E070E0CE018B509F4F0E94E71155
:1009B000DF91CF911F910F91FF9008958F929F9299
:1009C000BF92CF92DF92EF92FF920F931F93DF932C
:1009D000CF93CDB7DEB766970FB6F894DEBF0FBEE4
:1009E000CDBF8C017B016A01FC0182819381892B3F
:1009F00011F0BB2409C0BA01C8010E946318882302
:100A000009F057C0BB24B39461E081E00E94591CF7
:100A100080E192E09F938F9385E091E09F938F9385
:100A20000E949C2582E00E94841C0F900F900F90E2
:100A30000F904E010894811C911C02C0BB24B394FA
:100A4000B401C8010E9498138A85882349F1A60140
:100A5000B701C4010E94961E882391F729EC30E06B
:100A6000E20EF31EFF92EF928CE092E09F938F9341
:100A700085E091E09F938F930E949C251092DE0465
:100A80001092DF041092E0041092E10480E0EDB7D0
:100A9000FEB736960FB6F894FEBF0FBEEDBF09C085
:100AA000B601C8010E946318882319F4BB2031F2F3
:100AB0008FEF66960FB6F894DEBF0FBECDBFCF9115
:100AC000DF911F910F91FF90EF90DF90CF90BF903B
:100AD0009F908F9008952F923F924F925F926F92C6
:100AE0007F928F929F92AF92BF92CF92DF92EF92BE
:100AF000FF920F931F93DF93CF93CDB7DEB7C65608
:100B0000D2400FB6F894DEBF0FBECDBFCB59DD4F3C
:100B10008883C556D240CA59DD4F9883C656D24005
:100B20008B015A01BA016E010894C11CD11CC60187
:100B30000E946318982E882309F0D7C061E081E0F5
:100B40000E94591C81EF91E09F938F9385E091E083
:100B50009F938F930E949C2582E00E94841CCD5914
:100B6000DD4F0883C356D240CC59DD4F1883C4569D
:100B7000D240FF240F900F900F900F90BDE26B2E8C
:100B8000712C6C0E7D1EC6018C2CE92EA3E4CA2E9E
:100B9000D12CCC0EDD1EF7E12F2E312C2C0E3D1E5C
:100BA000E3E54E2EE1E05E2E4C0E5D1E02C072E0CB
:100BB000F72EB301882D9E2D0E9498138EA98823AD
:100BC00009F453C0A501B601C3010E94961E8823F3
:100BD00081F7B601CD59DD4F8881C356D240CC593B
:100BE000DD4F9881C456D2400E948C25009731F584
:100BF000FF20E9F2CB59DD4F8881C556D240CA5952
:100C0000DD4F9881C656D2409C01D901FE017796EE
:100C100086E101900D928150E1F7D801FE01ED5A75
:100C2000FE4F80E191E001900D920197E1F70753AB
:100C30001F4F1F930F938DEE91E03FC0D101882D80
:100C40009E2DFC0186E101900D928150E1F7D201C9
:100C5000F60180E191E001900D920197E1F7FF200C
:100C600009F0A7CFFF24F394A4CFFF2019F499240F
:100C70009A943BC0CB59DD4F8881C556D240CA59A2
:100C8000DD4F9881C656D2409C01D901FE0177966E
:100C900086E101900D928150E1F7D801FE01ED5AF5
:100CA000FE4F80E191E001900D920197E1F707532B
:100CB0001F4F1F930F9389EE91E09F938F9385E0D1
:100CC00091E09F938F930E949C251092DE041092D6
:100CD000DF041092E0041092E1048DB79EB70696EF
:100CE0000FB6F8949EBF0FBE8DBF892DCA59DD4F38
:100CF0000FB6F894DEBF0FBECDBFCF91DF911F912D
:100D00000F91FF90EF90DF90CF90BF90AF909F90AA
:100D10008F907F906F905F904F903F902F900895AD
:100D20004F925F926F927F928F929F92AF92BF92FB
:100D3000CF92DF92EF92FF921F93DF93CF93CDB7C5
:100D4000DEB766970FB6F894DEBF0FBECDBF5C016D
:100D50002B014A01122F61E081E00E94591C81E0C1
:100D600092E09F938F9385E091E09F938F930E94F1
:100D70009C2582E00E94841C8091B20090E00E9439
:100D800054250E944F25612F70E00E9463286C015A
:100D9000EE24D7FCE094FE2C10E00F900F900F9003
:100DA0000F903E010894611C711C0CC0B301C50179
:100DB0000E9498138A85882321F4B401C5010E94FA
:100DC00063181F5F812F90E0A0E0B0E08C159D05B7
:100DD000AE05BF0558F3A401B201C5010E94DE04AF
:100DE00066960FB6F894DEBF0FBECDBFCF91DF91F0
:100DF0001F91FF90EF90DF90CF90BF90AF909F90AA
:100E00008F907F906F905F904F9008952F923F92B8
:100E10004F925F926F927F928F929F92AF92BF920A
:100E2000CF92DF92EF92FF920F931F93DF93CF93B6
:100E3000CDB7DEB76C970FB6F894DEBF0FBECDBF4F
:100E400078940E94CC230E94D0221092EE0410923B
:100E5000EF041092F0041092F10481E08093F20408
:100E60001092EA041092EB041092EC041092ED043C
:100E70001092E6041092E7041092E8041092E9043C
:100E80001092DE041092DF041092E0041092E1044C
:100E90001092E2041092E3041092E4041092E5042C
:100EA00083E88093B0001092B30085E08093B10096
:100EB000809170008160809370000E94B61C20E0D9
:100EC00030E0AE014E5F5F4FF999FECF32BD21BDDC
:100ED000F89A80B5FA01E20FF31F80832F5F3F4F2E
:100EE0002B31310589F7A4E7B1E0FA018BE10190DC
:100EF0000D928150E1F760918E018FEF0E94DB1D12
:100F0000109274018091740182608093740101E0F9
:100F100045E0E42E41E0F42E38E5232E32E0332E76
:100F200028E8622E20E0722E9CE7492E90E0592E90
:100F300080E7882E80E0982E18E2A12E15E0B12ED1
:100F4000C12CD12C1982CE0101960E944623182F64
:100F50002981222309F4BDC081E08093F20410921C
:100F6000EE041092EF041092F0041092F104812F1D
:100F700090E09F938F93822F90E09F938F938BE9C4
:100F800090E09F938F9383E191E09F938F930E94D2
:100F90009C258DB79EB708960FB6F8949EBF0FBEDE
:100FA0008DBF112379F58091740191E08927809399
:100FB000740161E081E00E94591C8CE890E09F93ED
:100FC0008F93FF92EF920E949C2562E081E00E9445
:100FD000591C3F922F927F926F92FF92EF920E9444
:100FE0009C251092DE041092DF041092E00410920F
:100FF000E1048DB79EB70A960FB6F8949EBF0FBE58
:101000008DBF67C0113071F480917501823009F491
:1010100041C040E051E06FE871E08FE992E00E944A
:10102000DE0441C0123009F040C020918A023091A4
:101030008B0240918C0250918D028091740180FF4F
:101040001CC0CA01B90124E630E040E050E00E9433
:10105000382820918E0230918F0240919002509159
:1010600091020E947628263031054105510528F06D
:101070008FE891E00E94B2042CC08091750182300B
:1010800049F040E051E06FE871E08FE992E00E94A2
:101090006B0509C020E140E051E06FE871E08FE9A5
:1010A00092E00E949006082F14C0133019F488E0D3
:1010B00090E004C0143029F488EF9FEF0E94711E65
:1010C00008C0153031F46FE871E084E791E00E94C8
:1010D000C4010023D9F58091740180FF74C0809110
:1010E0009E028823D9F08FE891E00E941C1E823076
:1010F00009F069C08091740181FF22C0809175015F
:10110000823051F420E140E051E06FE871E08FE976
:1011100092E00E9490060AC0882351F440E051E01A
:101120006FE871E08FE992E00E94DE04082F4BC067
:10113000813009F048C08FE891E00E94B20443C0BA
:10114000809174018E7F809374013DC080E00E9485
:10115000350B65EB72E080E00E94AD0E40E051E09F
:101160006FE871E08FE992E00E94DE04082F882387
:1011700051F161E081E00E94591C5F924F92FF9211
:10118000EF920E949C2562E081E00E94591C802F12
:10119000992787FD90959F938F939F928F92FF92AF
:1011A000EF920E949C251092DE041092DF041092B0
:1011B000E0041092E1048DB79EB70A960FB6F8943A
:1011C0009EBF0FBE8DBF8091DE049091DF04A09181
:1011D000E004B091E104845C9440A040B040E0F0B1
:1011E0008091DE049091DF04A091E004B091E104CD
:1011F00088529540A040B04078F4A092DE04B092AE
:10120000DF04C092E004D092E10460918D018091EE
:101210008C010E94891B15C08091DE049091DF042F
:10122000A091E004B091E10488529540A040B04004
:1012300040F0A092DE04B092DF04C092E004D092AD
:10124000E1048091E2049091E304A091E404B09160
:10125000E50486519D41A040B04008F473CE8091D2
:10126000DE049091DF04A091E004B091E104885283
:101270009540A040B04008F465CE1092E204109270
:10128000E3041092E4041092E50460918D018091D2
:101290008C010E94891B56CE882311F00E945F2585
:1012A00008951F920F920FB60F9211242F933F9320
:1012B0004F935F936F937F938F939F93AF93BF935E
:1012C000EF93FF938091E6049091E704A091E804E6
:1012D000B091E9040196A11DB11D8093E60490939D
:1012E000E704A093E804B093E9048091DE049091B0
:1012F000DF04A091E004B091E1040196A11DB11DAD
:101300008093DE049093DF04A093E004B093E104A3
:101310008091E2049091E304A091E404B091E5048B
:101320000196A11DB11D8093E2049093E304A09364
:10133000E404B093E5048091EE049091EF04A09151
:10134000F004B091F1040196A11DB11D8093EE044B
:101350009093EF04A093F004B093F1048091EE0415
:101360009091EF04A091F004B091F1048958994054
:10137000A040B04070F01092F20489E899E0A0E03B
:10138000B0E08093EE049093EF04A093F004B09348
:10139000F1048091F2048823A1F48091EA049091F1
:1013A000EB04A091EC04B091ED040297A105B10506
:1013B00040F08091B3008823C9F08091B300815040
:1013C00013C08091F2048130D1F48091EA049091AD
:1013D000EB04A091EC04B091ED048091B3008F3F39
:1013E00029F08091B3008F5F8093B3001092EA04DC
:1013F0001092EB041092EC041092ED0413C0809153
:10140000EA049091EB04A091EC04B091ED040196F4
:10141000A11DB11D8093EA049093EB04A093EC040A
:10142000B093ED040E94990EFF91EF91BF91AF919F
:101430009F918F917F916F915F914F913F912F91EC
:101440000F900FBE0F901F9018958DB581608DBDC8
:101450002B9808952B9A8DB58E7F8DBD0895FC0134
:101460008AE08093D7049FEF9EBD0DB407FEFDCFA9
:101470008EB58F3F29F48091D7048823A9F72EC019
:101480008E3F61F59FEF9EBD0DB407FEFDCF8EB57B
:1014900080839EBD0DB407FEFDCF8EB581839EBDBA
:1014A0000DB407FEFDCF8EB582839EBD0DB407FE41
:1014B000FDCF8EB583836450704011F03496E3CF36
:1014C0008FEF8EBD0DB407FEFDCF8EB58FEF8EBDB5
:1014D0000DB407FEFDCF8EB581E0089580E008953C
:1014E000FC0182E38093D8048FEF8EBD0DB407FE1C
:1014F000FDCF8EB59FEF9EBD0DB407FEFDCF8EB51F
:101500008F3F31F08091D8048823A9F790E02EC056
:101510006EBD0DB407FEFDCF6D3F11F491E026C006
:1015200090E080818EBD0DB407FEFDCF81818EBD20
:101530000DB407FEFDCF915011F03296F2CF8FEF30
:101540008EBD0DB407FEFDCF8FEF8EBD0DB407FE2F
:10155000FDCF8FEF8EBD0DB407FEFDCF8EB590E0B1
:101560008F71853009F091E081E09827892F0895E7
:10157000DF92EF92FF920F931F93D82E7A018B0187
:1015800087FF0CC040E050E060E070E087E70E9419
:10159000B80A823008F063C08FE7D8222B9A8DB545
:1015A0008E7F8DBD8DB581608DBD2B9882E380933C
:1015B000D8048FEF8EBD0DB407FEFDCF8EB59FEF23
:1015C0009EBD0DB407FEFDCF8EB58F3F31F08091EB
:1015D000D8048823A9F78FEF42C0DEBC0DB407FE04
:1015E000FDCF812F9927AA27BB278EBD0DB407FEFB
:1015F000FDCFC801AA27BB278EBD0DB407FEFDCFC6
:10160000BB27A12F902F8F2D8EBD0DB407FEFDCFD0
:10161000EEBC0DB407FEFDCF80E4D81611F485E9C9
:1016200006C088E4D81611F487E801C081E08EBDB9
:101630000DB407FEFDCF8CE4D81631F48FEF8EBDCC
:101640000DB407FEFDCF8EB59AE02FEF2EBD0DB481
:1016500007FEFDCF8EB587FF02C09150B9F71F91ED
:101660000F91FF90EF90DF900895EF92FF920F930C
:101670001F93DF93CF9300D000D0CDB7DEB7882380
:1016800011F081E0B1C080914E0181FDABC02B9A79
:10169000239A80E69AEE0197F1F78AE09FEF9EBDCC
:1016A0000DB407FEFDCF2EB58150C9F740E050E0E4
:1016B00060E070E080E40E94B80A813009F07EC0EA
:1016C00084E68093D7044AEA51E060E070E088E461
:1016D0000E94B80A813009F04AC07E010894E11CDA
:1016E000F11C87019FEF9E012B5F3F4F9EBD0DB404
:1016F00007FEFDCF8EB5F80181938F01E217F30746
:10170000A9F78B81813009F059C08C818A3A09F0A0
:1017100055C08091D704882349F040E050E060E054
:1017200070E489EE0E94B80A882399F78091D70463
:10173000882309F443C040E050E060E070E08AE7AD
:101740000E94B80A8823D1F59FEF9EBD0DB407FE15
:10175000FDCF8EB5F70181937F01E017F107A9F75F
:10176000898186FD02C014E02AC01CE028C040E048
:1017700050E060E070E089EE0E94B80A823018F014
:1017800001E411E002C009EE12E08091D704882341
:1017900049F040E050E060E070E0802F0E94B80A1D
:1017A000882399F78091D704882341F040E052E0E4
:1017B00060E070E080E50E94B80A811110E01093AB
:1017C000D9042B9A8DB58E7F8DBD8FEF8EBD0DB454
:1017D00007FEFDCF8EB5112329F080914E018E7F3B
:1017E00080934E0180914E010F900F900F900F90BB
:1017F000CF91DF911F910F91FF90EF900895882373
:1018000011F081E0089580914E0108950F93CF93D8
:10181000DF93EB01882309F04FC0002309F44CC08B
:1018200080914E0180FF02C003E047C08091D9043F
:1018300083FD07C069E0220F331F441F551F6A95BF
:10184000D1F7013089F4BA01A90181E50E94B80AF3
:10185000882321F560E072E0CE010E942F0A00E0AB
:101860008823E1F401E01AC0BA01A90182E50E94CF
:10187000B80A882399F460E072E0CE010E942F0A32
:10188000882329F0015019F0C050DE4FF4CF40E01A
:1018900050E060E070E08CE40E94B80A2B9A8DB5AD
:1018A0008E7F8DBD8FEF8EBD0DB407FEFDCF8EB543
:1018B000002319F001E001C004E0802FDF91CF91F7
:1018C0000F910895CF92DF92EF92FF920F93CF93F3
:1018D000DF93EB0169017A01882309F05DC00023E1
:1018E00009F45AC080914E0180FF02C003E055C048
:1018F00080914E0182FF02C002E04FC08091D90466
:1019000090E083FD07C079E0CC0CDD1CEE1CFF1CD1
:101910007A95D1F7013069F4B701A60188E50E94F4
:10192000B80A882359F56EEFCE010E94700A00E0D4
:1019300022C086709070892B39F0402F50E060E013
:1019400070E087ED0E94B80AB701A60189E50E9400
:10195000B80A882399F46CEFCE010E94700A88239C
:1019600029F0015019F0C050DE4FF5CF6DEF80E047
:1019700090E00E94700A882309F401E02B9A8DB54B
:101980008E7F8DBD8FEF8EBD0DB407FEFDCF8EB562
:10199000002319F001E001C004E0802FDF91CF9116
:1019A0000F91FF90EF90DF90CF900895FF920F93EB
:1019B0001F93DF93CF93CDB7DEB760970FB6F89440
:1019C000DEBF0FBECDBF8A01882309F0A4C16430F9
:1019D000B1F4FA018081813031F0813070F08230D1
:1019E00009F099C107C02B9A239A80E69AEE0197D5
:1019F000F1F703C081E0FA01818390E08DC180910D
:101A00004E0180FF02C093E087C16A3009F42DC106
:101A10006B3050F4613089F16130A0F0623009F42C
:101A20008DC0633069F490C06C3009F429C16C300A
:101A300008F420C16D3009F42FC16E3009F445C19E
:101A400094E05EC18DB581608DBD2B9882E380935B
:101A5000D8048FEF8EBD0DB407FEFDCF8EB59FEF7E
:101A60009EBD0DB407FEFDCF8EB58F3F09F445C175
:101A70008091D8048823A1F742C140E050E060E0A3
:101A800070E089E40E94B80A882309F038C160E157
:101A900070E0CE0101960E942F0A882309F42FC11D
:101AA000898182958695869583707A85498581306E
:101AB00089F4872F90E00196342F20E0820F931F46
:101AC000A0E0B0E02AE0880F991FAA1FBB1F2A954B
:101AD000D1F7C5C04295469546954370288530E0BC
:101AE000220F331F220F331F240F311D2F5F3F4F53
:101AF0008F8190E083709070982F8827990F990FAD
:101B0000280F391F40E050E08E818F706B85661F73
:101B10006627661F860F8E5F7370770F870F90E0C2
:101B2000099704C0220F331F441F551F8A95D2F70F
:101B3000F8012083318342835383DFC080E092E049
:101B4000FA0191838083D9C08091D904F82E82FF55
:101B500031C040E050E060E070E08DEC0E94B80AD7
:101B6000882309F0CCC08FEF8EBD0DB407FEFDCFEA
:101B70008EB560E170E0CE0101960E942F0A8823A5
:101B800009F4BDC080E39FEF9EBD0DB407FEFDCFFD
:101B90002EB58150C9F72B8522952F7080E190E0FA
:101BA000A0E0B0E004C0880F991FAA1FBB1F2A95B0
:101BB000D2F755C040E050E060E070E089E40E9458
:101BC000B80A882309F09BC060E170E0CE0101965D
:101BD0000E942F0A882309F492C04B858C85F1FE60
:101BE0001BC0881F8827881F90E00196242F30E0B3
:101BF0002F733070220F331F820F931F2E85229573
:101C000026952695237030E02150304002C0880F81
:101C1000991F2A95E2F721C0282F30E023703070F9
:101C2000F3E0220F331FFA95E1F7829586958770CE
:101C3000280F311D2F5F3F4F842F90E08C779070DD
:101C400095958795959587950196AC01249FC00140
:101C5000259F900D349F900D1124A0E0B0E0F80175
:101C600080839183A283B38348C08091D904FA0111
:101C7000808343C040E050E060E070E089E405C04C
:101C800040E050E060E070E08AE40E94B80A8823F7
:101C9000B1F560E170E02AC040E050E060E070E043
:101CA0008AE70E94B80A882351F5F8019FEF98014E
:101CB0002D5F3F4F9EBD0DB407FEFDCF8EB58083D7
:101CC000E217F307D1F03196F5CF40E050E060E045
:101CD00070E08DEC0E94B80A882389F48FEF8EBDE6
:101CE0000DB407FEFDCF8EB560E470E0C8010E9420
:101CF0002F0A90E0882321F402C090E001C091E017
:101D00002B9A8DB58E7F8DBD8FEF8EBD0DB407FEE6
:101D1000FDCF8EB501C094E0892F60960FB6F89480
:101D2000DEBF0FBECDBFCF91DF911F910F91FF900E
:101D300008958091D704882319F081508093D704A7
:101D40008091D804882319F081508093D804809121
:101D50004E01897F80934E010895DB01882311F0A5
:101D60008BE00895E091DA04F091DB04309709F0FC
:101D70001082109709F01C92B093DB04A093DA0450
:101D800080E00895FC01009789F08081882371F03C
:101D9000868197818617970749F481810E94FF0BFE
:101DA00080FD02C080E0089583E0089589E00895F1
:101DB000CF93DF93EC016A817B81888199810E94B6
:101DC000C20E882311F419821882DF91CF910895F1
:101DD000CF92DF92EF92FF920F93CF93DF93EC01BC
:101DE0006A017B018E8D9F8DA8A1B9A184179507EB
:101DF000A607B707B1F0411551056105710589F0D6
:101E0000BE016E5D7F4F01E0A701960189810E94AE
:101E1000060C882311F081E005C0CE8EDF8EE8A28B
:101E2000F9A280E0DF91CF910F91FF90EF90DF90CA
:101E3000CF9008954F925F926F927F928F929F9270
:101E4000AF92BF92CF92DF92EF92FF920F931F93C8
:101E5000CF93DF932C015A016B014230510561058C
:101E6000710508F4DDC0F20186859785A089B189E6
:101E7000481759076A077B0708F0D2C06288738841
:101E8000848895888081823009F44FC0833009F4BA
:101E900071C0813009F0CAC08A01000F111F040F00
:101EA000151F16950795A801452F5527469560E003
:101EB00070E0460D571D681D791DC2010E94E80E95
:101EC000882309F0B3C0F801F170E40DF51DF2A00C
:101ED000E8012196AE01452F5527469560E070E058
:101EE000460D571D681D791DC2010E94E80E88230A
:101EF00009F09CC0EF2CFF24D170C40DD51D9AA110
:101F000080E0E82AF92AC50181709070892B31F0B0
:101F1000B4E0F694E794BA95E1F729C000E010E048
:101F20008FEF9FE0A0E0B0E076C0452F562F672FDF
:101F30007727460D571D681D791DC2010E94E80EC6
:101F4000882309F073C0D2019296C501880F991FAA
:101F50009170FC013196EA0FFB1F4081A80FB91F59
:101F60002C91942F80E030E0822B932B7C0100E0B9
:101F700010E060C0E7E07695679557954795EA953C
:101F8000D1F7460D571D681D791DC2010E94E80E4C
:101F9000882309F04BC0A2014E5D5F4F9501220FCF
:101FA000331F220F331F3170F9013396E40FF51FF1
:101FB000E080F9013296E40FF51F8081F901319636
:101FC000E40FF51F6081420F531FDA012C91FF24AB
:101FD00000E010E01E2D0027FF24EE2490E0A0E09A
:101FE000B0E0DC0199278827E82AF92A0A2B1B2B65
:101FF00030E040E050E0E22AF32A042B152B962F24
:1020000080E0A0E0B0E0E82AF92A0A2B1B2B8FEF32
:102010009FEFAFEFBFE0E822F9220A231B230AC09B
:1020200081E0E82EF12C012D112D04C0EE24EA945C
:10203000FE2C8701B701C801DF91CF911F910F914D
:10204000FF90EF90DF90CF90BF90AF909F908F90D8
:102050007F906F905F904F900895AF92BF92CF9214
:10206000DF92EF92FF920F931F93CF93DF935C0168
:10207000EB01DC0113967C936E93129716964D91AB
:102080005D916D917C911997413051056105710504
:1020900009F4C2C01496ED91FC9115978685978539
:1020A000A089B189481759076A077B0708F0B4C0AF
:1020B0004115510561057105E1F480859185C817C9
:1020C000D90708F0A9C0CE01A4E096958795AA95F6
:1020D000E1F7A0E0B0E026893789408D518D820F6D
:1020E000931FA41FB51FF50186879787A08BB18B1F
:1020F00082C08281082F10E0F4E0000F111FFA95D2
:10210000E1F726C0C6010E941A0FAB01BC014F3F88
:10211000FFEF5F07FFEF6F07FFEF7F0711F481E02D
:102120007CC0423051056105710508F475C0D501C8
:102130001496ED91FC91159786859785A089B189B4
:10214000481759076A077B0708F066C0C01BD10B08
:10215000F501C480D580C017D107A0F6D5011A9625
:102160004D935D936D937C931D97EEEFEE2EEFEF05
:10217000FE2EEFEF0E2FEFEF1E2FE40EF51E061FC3
:10218000171FF60186859785A089B1890297A10955
:10219000B109E816F9060A071B0728F020E030E02D
:1021A00040E050E015C0D60112962C9130E040E09E
:1021B00050E0C801B7010E9438289B01AC01F6012C
:1021C000828D938DA48DB58D280F391F4A1F5B1FFB
:1021D000CE0164E0969587956A95E1F7A0E0B0E0BE
:1021E000280F391F4A1F5B1FD5011E962D933D9363
:1021F0004D935C935197CF70D07035E0CC0FDD1FBD
:102200003A95E1F7A296F501848195818C0F9D1F87
:10221000938B828B80E001C082E0DF91CF911F9190
:102220000F91FF90EF90DF90CF90BF90AF90089507
:102230008F929F92AF92BF92CF92DF92EF92FF92D6
:102240000F931F93CF93DF93EC01AA80BB80089478
:10225000A11CB11CA114B10409F4ABC08E859F85EB
:10226000A889B9890097A105B10509F4A2C02FE09A
:10227000822E912C8A209B208114910409F086C023
:102280000196A11DB11D8E879F87A88BB98B8E816A
:102290009F81A885B985EC81FD810097A105B105D5
:1022A00039F480859185A816B90608F46FC081C0FD
:1022B000828190E00197950104E0369527950A9573
:1022C000E1F782239323892B09F060C04A855B855F
:1022D0006C857D85CF010E941A0F9B01AC01623095
:1022E00071058105910510F482E064C02F3F8FEFE6
:1022F00038078FEF48078FEF580711F481E05AC075
:10230000CC80DD80F60186859785A089B189281764
:1023100039074A075B0708F04CC02A873B874C8780
:102320005D871EEFE12E1FEFF12E1FEF012F1FEF34
:10233000112FE20EF31E041F151F86859785A089B5
:10234000B1890297A109B109E816F9060A071B0726
:1023500028F020E030E040E050E014C0F601228197
:1023600030E040E050E0C801B7010E9438289B01EE
:10237000AC01F601828D938DA48DB58D280F391F88
:102380004A1F5B1F2E873F87488B598BBB82AA82CF
:10239000B5E0880C991CBA95E1F782E290E0880ECE
:1023A000991E8C819D81880D991D9B8B8A8B80E065
:1023B00001C084E0DF91CF911F910F91FF90EF90CA
:1023C000DF90CF90BF90AF909F908F9008952F9205
:1023D0003F924F925F926F927F928F929F92AF92B5
:1023E000BF92CF92DF92EF92FF920F931F93DF93F2
:1023F000CF9300D00F92CDB7DEB79B838A83142F83
:10240000052FE62ED72EDC0112966D917C91139745
:102410008D919C910E94C20E8983882309F071C11D
:10242000EA81FB81848187FDB8C0AA81BB811A96AD
:102430006D907D908D909C901D97212F302F4E2D6B
:102440005D2DC901DA015C016D016A147B048C0405
:102450009D0410F464015301EA81FB8126813781D8
:102460004085518516821782108611868FEF8583ED
:10247000A114B104C104D10409F443C10190F08155
:10248000E02D8281682E77248824992409E0660C47
:10249000771C881C991C0A95D1F721153105410537
:1024A0005105C1F119012A01089421083108410898
:1024B0005108C601B5016150704080409040A401B0
:1024C00093010E94762879018A01C201B101A40119
:1024D00093010E947628E216F30604071507D0F050
:1024E00088279927DC0186199709A809B90982214B
:1024F0009321A421B521EA81FB8186839783A0875C
:10250000B187A81AB90ACA0ADB0A428953896489C1
:1025100075890DC0AA81BB811E964D915D916D910B
:102520007C915197FD01428B538B648B758B4115C8
:1025300051056105710509F04BC0E3C0AA81BB815B
:102540008D919C910E941A0FAB01BC014F3FBFEFD0
:102550005B07BFEF6B07BFEF7B0741F4EA81FB81AD
:10256000848180688483F1E0F983CBC042305105D7
:102570006105710568F0AA81BB81ED91FC918685AA
:102580009785A089B189481759076A077B0738F0F2
:10259000EA81FB81848180688483F2E0E5CFAA81AF
:1025A000BB8152964D935D936D937C935597FD013E
:1025B00086819781A085B185860D971DA81DB91DBF
:1025C00086839783A087B187A618B708C808D9085B
:1025D0006A147B048C049D0408F4B0CFAA81BB81EB
:1025E00016966D907D908D909C9019976A0C7B1C2F
:1025F0008C1C9D1CFD016682778280869186D601A7
:10260000C50119E0B695A795979587951A95D1F7C5
:10261000E82E85838FEF91E0A0E0B0E0A822B922F8
:10262000CA22DB22A114B104C104D10409F469C097
:10263000008111813EEFA32E3FEFB32E3FEFC32E5B
:102640003FEFD32EA40EB51EC61ED71EF8018685F9
:102650009785A089B1890297A109B109A816B90681
:10266000CA06DB06C0F4228130E040E050E0C6013B
:10267000B5010E9438289B01AC01F801828D938D31
:10268000A48DB58D280F391F4A1F5B1F21153105F9
:102690004105510559F4AA81BB8114968C91149778
:1026A000806814968C93B2E0B9832BC02E0D311D37
:1026B000411D511DE394EA81FB81E582211531051D
:1026C00041055105F1F086899789A08DB18D2817B4
:1026D00039074A075B07A9F08FEF91E0A0E0B0E06F
:1026E000682279228A229B22611471048104910458
:1026F00041F0AA81BB8156962D933D934D935C93F7
:10270000599789810F900F900F90CF91DF911F9172
:102710000F91FF90EF90DF90CF90BF90AF909F9080
:102720008F907F906F905F904F903F902F90089583
:102730006F927F928F929F92AF92BF92CF92DF92D1
:10274000EF92FF920F931F93DF93CF93CDB7DEB736
:102750002C970FB6F894DEBF0FBECDBF4C013B01E6
:10276000DC016D917C91119714968D919C91159738
:102770000E94C20E882309F0F5C0CE010196F40133
:10278000958B848B6114710411F084E026C060E0A5
:1027900070E0C4010E942D10E5C0D40114968D9103
:1027A0009C9115970E94E80E882319F5D401529642
:1027B000ED91FC9153979081992309F4E8C08385AA
:1027C000953E29F09E3219F08F7383FF1EC060E0A2
:1027D000C4010E941811882361F4F40146855785CD
:1027E000608971894115510561057105B1F688232C
:1027F00061F0D4011E961D921D921D921C9251975C
:10280000843019F0882309F0ADC09301275F3F4F52
:10281000F40186859785A089B1890097A105B10546
:1028200009F490C0C288D388D6011C969C9140E0E0
:1028300050E0692F70E068707070F601E40FF51FCA
:10284000E081E03299F0E53009F4E5EE61157105BB
:1028500029F08E2F81548A3108F4E05ED901ED937E
:102860009D014F5F5F4F4830510539F7F601808574
:10287000803211F459011DC08EE2D9018D935D01A2
:10288000F601492F50E0407150702C5F3F4F90850A
:10289000903279F04115510529F0892F81548A3100
:1028A00008F4905ED5019D935D013196A217B307A0
:1028B00071F7F6018385D30118968C93278D868D49
:1028C000658DE48C30E040E050E0522F4427332700
:1028D000222790E0A0E0B0E0DC0199278827282B90
:1028E000392B4A2B5B2BFF2400E010E02E293F29D7
:1028F000402B512B962F80E0A0E0B0E0282B392B05
:102900004A2B5B2BF3012083318342835383D6010F
:1029100059964C91599758962C915897942F80E03E
:1029200030E0822B932B9583848357964C91579755
:1029300056962C91942F80E030E0822B932B978336
:1029400086839501F901108260E0C4010E9418118C
:10295000843041F4D4011E961D921D921D921C924A
:10296000519780E02C960FB6F894DEBF0FBECDBF16
:10297000CF91DF911F910F91FF90EF90DF90CF905B
:10298000BF90AF909F908F907F906F90089584E05C
:1029900030CF0F93CF93DF93EC019A01AB01BC01D1
:1029A0006E5D7F4F01E089810E94060C882311F043
:1029B00023E032C0CF5DDD4F48812A91C052D24022
:1029C000942F80E030E0822B932B85559A4A11F0AA
:1029D00022E022C043E050E06FE471E0CE01885A6B
:1029E0009F4F0E946425009711F420E015C045E038
:1029F00050E063E571E0CE018C589F4F0E94642542
:102A0000009711F021E008C020E0C65BDF4F88810D
:102A100087FF21E081E02827822FDF91CF910F915E
:102A200008952F923F924F925F926F927F928F9272
:102A30009F92AF92BF92CF92DF92EF92FF920F934D
:102A40001F93CF93DF93DC019B01ED91FC911197D4
:102A5000908190539A3050F481818A3339F43296C0
:102A6000ED93FC93992311F08BE07BC1C091DA04C4
:102A7000D091DB04F901D183C083209711F48CE05D
:102A800070C18881882329F089810E94FF0B80FF13
:102A900065C11882198280E00E94350B80FF02C058
:102AA00083E05FC140E050E060E070E0CE010E9452
:102AB000C914813021F066247724430130C0FE011F
:102AC000E052FE4F8481882309F44AC12385828520
:102AD0006185E08430E040E050E0922E8824772445
:102AE000662490E0A0E0B0E0DC0199278827682AFE
:102AF000792A8A2A9B2AFF2400E010E06E287F288A
:102B0000802A912A962F80E0A0E0B0E0682A792AF6
:102B10008A2A9B2AB401A301CE010E94C9148330E2
:102B200011F481E01EC1882309F01AC14EA52DA51C
:102B3000942F80E030E0822B932B8050924009F05C
:102B40000FC149AD28AD942F80E030E0822B932B4C
:102B50005C01CC24DD24A114B104C104D10441F5ED
:102B6000C75BDF4F28818A916A91EA90C654D040B2
:102B700030E040E050E0D22ECC24BB24AA2490E0E8
:102B8000A0E0B0E0DC0199278827A82AB92ACA2A40
:102B9000DB2AFF2400E010E0AE28BF28C02AD12A9B
:102BA000962F80E0A0E0B0E0A82AB92ACA2ADB2A42
:102BB000AA86BB86CC86DD862AA92B8330E040E03E
:102BC00050E0C601B5010E9438281B012C0149A91B
:102BD00028A9942F80E030E0822B932BA0E0B0E076
:102BE000680E791E8A1E9B1E6A8A7B8A8C8A9D8A41
:102BF0008FA58A832CA93BA9922F80E0E32FF0E0D8
:102C0000E82BF92BF987E8874EA92DA9942F80E0AE
:102C100030E0822B932B5C01CC24DD24A114B10481
:102C2000C104D10441F5CB5BDF4F28818A916A91C1
:102C3000EA90C254D04030E040E050E0D22ECC24A4
:102C4000BB24AA2490E0A0E0B0E0DC01992788270B
:102C5000A82AB92ACA2ADB2AFF2400E010E0AE28FD
:102C6000BF28C02AD12A962F80E0A0E0B0E0A82A91
:102C7000B92ACA2ADB2A49A928A9942F80E030E082
:102C8000822B932BA0E0B0E0A81AB90ACA0ADB0A8B
:102C9000A218B308C408D50814E0F695E7951A956C
:102CA000E1F7CF01A0E0B0E0A81AB90ACA0ADB0A2E
:102CB0002A8130E040E050E0C601B5010E9476284C
:102CC0002E5F3F4F4F4F5F4F2E873F87488B598B6B
:102CD000273F8FE0380780E0480780E0580710F46E
:102CE00061E007C0275F3F4F4040504008F04CC0B4
:102CF00062E08A899B89AC89BD89820D931DA41DE0
:102D0000B51D8E8B9F8BA88FB98F88859985B4E070
:102D100096958795BA95E1F7A0E0B0E02A893B89BE
:102D20004C895D89820F931FA41FB51F820D931DCF
:102D3000A41DB51D8A8F9B8FAC8FBD8F1E8E1F8EDD
:102D400018A219A268838091DC049091DD04019699
:102D50009093DD048093DC049F838E8380E001C028
:102D60008DE0DF91CF911F910F91FF90EF90DF9059
:102D7000CF90BF90AF909F908F907F906F905F901B
:102D80004F903F902F900895CF5ADF4F28818A911E
:102D90006A91EA90CE54D04030E040E050E0522FAB
:102DA00044273327222790E0A0E0B0E0DC019927F8
:102DB0008827282B392B4A2B5B2BFF2400E010E0BF
:102DC0002E293F29402B512B962F80E0A0E0B0E028
:102DD000282B392B4A2B5B2B2E8B3F8B488F598FFF
:102DE00063E093CF2F923F924F925F926F927F92C8
:102DF0008F929F92AF92BF92CF92DF92EF92FF920B
:102E00000F931F93CF93DF936C013B01DB018C91F8
:102E10008F3211F08C3519F40894611C711CD601A5
:102E20001496ED91FC9115978081833029F080E014
:102E300090E0A0E0B0E004C086899789A08DB18DB4
:102E4000F60186839783A087B187D3018C91803266
:102E500048F460E070E0C6010E942D10F601138A6C
:102E6000128A1BC160E070E0C6010E942D10882309
:102E700009F013C1D6015496ED90FC9055974BE0A4
:102E800050E060E270E0C7010E947A25C0E0D0E027
:102E9000AA24BB2498E0892E912C00E0F301EA0DCE
:102EA000FB1D10810894A11CB11C103208F460C0F5
:102EB0001F3209F405C11C3509F402C11E3219F094
:102EC000C815D90584F0B8E08B16910409F0E0C06C
:102ED0001E3209F0DDC0000F000FC8E0D0E08BE02B
:102EE000882E912CDBCF17FD0360812F81588F3105
:102EF00018F08F558D3108F5F301EA0DFB1D208187
:102F0000822F80548F3320F080548D3708F0C0C05A
:102F1000C4010197C817D9070CF0BAC00894A11CC6
:102F2000B11CF701EC0FFD1F1083CE010196F701D4
:102F3000E80FF91F2083EC0119C0612F70E089E5CB
:102F400091E00E948125009709F0A2C0812F815451
:102F50008A3110F4026006C0812F81568A3110F444
:102F600001601052F701EC0FFD1F1083219696CFE0
:102F7000902F44E0CD2B09F48BC0F7018081853E72
:102F800011F485E08083A8E08A16910419F4902F4B
:102F9000990F990F292F30E0C90183709070019724
:102FA00009F440612C7030702430310509F4486018
:102FB000F7014387D6011E964D915D916D917C91ED
:102FC000519714968D919C9115970E94E80E182F99
:102FD000882329F5D6015296ED91FC915397908163
:102FE000992311F414E01BC08385953E89F09E322D
:102FF00079F08F7383FD0CC0D60154966D917C914E
:1030000055974BE050E0CF010E946425009739F0BE
:1030100060E0C6010E941811182F882359F2D601CA
:103020005496ED91FC9155979385112331F0812FA2
:10303000143081F592FF30C030C092FD2BC0D60114
:103040005296ED91FC915397838584FF25C06A0CBD
:103050007B1C65898489738D228D362E222490E015
:1030600082299329A0E0B0E0DC0199278827572E18
:10307000442430E02429352940E050E0822B932B72
:10308000A42BB52BF60186839783A087B187EACE60
:1030900086E003C0812F01C085E0DF91CF911F91B1
:1030A0000F91FF90EF90DF90CF90BF90AF909F90E7
:1030B0008F907F906F905F904F903F902F900895EA
:1030C000902F40E057CF0F931F93DF93CF93CDB74F
:1030D000DEB72E970FB6F894DEBF0FBECDBF8C01C2
:1030E0007E876D87BC016C5F7F4F40E0CE010D96FF
:1030F0000E941115282F882309F067C0CE01019680
:10310000D80155969C938E9354976D857E85C80102
:103110000E94F216282F882309F054C0F801A289D2
:10312000B389109769F11B968C911B9784FF3FC060
:103130005596EC91559754968C9154975B96FC91CB
:103140005B975A966C913E2F20E090E0282B392B0C
:1031500040E050E0A901332722279F2F80E070E054
:10316000862B972BA0E0B0E0282B392B4A2B5B2B2A
:10317000D80116962D933D934D935C93199731C0CA
:10318000D8011496ED91FC9115978081833029F038
:1031900080E090E0A0E0B0E004C086899789A08D2F
:1031A000B18DF80186839783A087B1871AC025E087
:1031B000D8011496ED91FC911597868197818D9396
:1031C0009C9303C0843009F425E0822F2E960FB61D
:1031D000F894DEBF0FBECDBFCF91DF911F910F914D
:1031E000089560E070E0C8010E942D10282FE0CF04
:1031F000BF92CF92DF92EF92FF920F931F93DF93D4
:10320000CF93CDB7DEB7A4970FB6F894DEBF0FBE4D
:10321000CDBF6C017CA36BA3E42EDC011D921C923C
:1032200040E0BE016F5E7F4FCE0183960E94111574
:10323000B82E882309F090C0CE0101969AA389A3E5
:103240006BA17CA1CE010D960E94F216B82E8823A8
:1032500009F082C00F8D18A10115110509F47AC07B
:10326000F801838584FD76C0F1E0EF22D601149643
:10327000EC92D8015596EC91559754968C915497B1
:103280005B96FC915B975A966C913E2F20E090E004
:10329000282B392B40E050E0A901332722279F2F0C
:1032A00080E070E0862B972BA0E0B0E0282B392B34
:1032B0004A2B5B2BF60126873787408B518BD80131
:1032C0005F962C915F975E968C915E975D966C9160
:1032D0005D975C96EC9030E040E050E0522F442740
:1032E0003327222790E0A0E0B0E0DC01992788276F
:1032F000282B392B4A2B5B2BFF2400E010E02E29D2
:103300003F29402B512B962F80E0A0E0B0E0282BE6
:10331000392B4A2B5B2B2287338744875587D6016D
:1033200016961D921D921D921C9219978FEF15965D
:103330008C931597168A178A108E118EE989FA894F
:103340001196FC93EE938681978113969C938E93AE
:10335000129702C0E4E0BE2E8B2DA4960FB6F8940F
:10336000DEBF0FBECDBFCF91DF911F910F91FF90B8
:10337000EF90DF90CF90BF9008952F923F924F92A1
:103380005F927F928F929F92AF92BF92CF92DF9285
:10339000EF92FF920F931F93CF93DF93EC01162FC1
:1033A000072F5A012901F901118210826A817B815C
:1033B000888199810E94C20E782E882309F00AC163
:1033C0008C8187FD4FC080FD03C0F7E07F2E02C1D6
:1033D0002A853B854C855D858E819F81A885B98531
:1033E000281B390B4A0B5B0BC501A0E0B0E0281786
:1033F00039074A075B0708F45901812F902F9C0178
:103400004901212CE2E03E2EE1C02E813F8148851A
:103410005985DA01C9019170A070B0700097A105BB
:10342000B10509F08EC0E881F9819D8182819817EC
:1034300050F1211531054105510529F46E857F852F
:103440008889998907C04A895B896C897D89CF0100
:103450000E941A0F623071058105910530F48C814C
:1034600080688C8372E0772EB5C06F3FFFEF7F07D7
:10347000FFEF8F07FFEF9F0709F471C06A8B7B8B0B
:103480008C8B9D8B1D82C880D9802A893B894C8971
:103490005D892250304040405040F6018685978536
:1034A000A089B1890297A109B109281739074A07EC
:1034B0005B07A8F61281612F70E080E090E00E9427
:1034C00038289B01AC01F601828D938DA48DB58DBA
:1034D000280F391F4A1F5B1F211531054105510572
:1034E00009F4BDCF8D81280F311D411D511D75017E
:1034F000EF2CFF24E694E114F104E9F0A82FB0E0EA
:10350000C7018A0F9B1FE12FF0E0E817F90718F4B5
:103510007F01EA1AFB0A0E2DB401F60181810E9497
:10352000060C8823E1F48D818E0D8D838701102F89
:103530000027110F31C02E8B3F8B488F598F8F5F23
:103540008D83EE80FF80088519854E895F89688D9F
:10355000798D888199810E94E80E882331F08C81D1
:1035600080688C837724739435C0C7019170910172
:10357000281B390B85012A153B0508F489018E812A
:103580009F819170829628813981280F391FA80167
:10359000B901C4010E947125800E911EC801A0E0EE
:1035A000B0E02E813F8148855985280F391F4A1F79
:1035B0005B1F2E833F8348875987F2018081918169
:1035C000800F911F91838083A01AB10AA114B104C6
:1035D00009F01BCF872DDF91CF911F910F91FF90A5
:1035E000EF90DF90CF90BF90AF909F908F907F90A3
:1035F0005F904F903F902F900895EF92FF920F931E
:103600001F93DF93CF9300D000D00F92CDB7DEB7DA
:103610008D83662311F0129A01C0129884E0898389
:1036200085E08A8386E08B8387E08C83DE011196B8
:103630007D0144E050E08E010B5F1F4F61E070E0C0
:10364000F801808190E0042E02C0959587950A9438
:10365000E2F7F701908180FF0AC022B1FB0102C0AE
:10366000EE0FFF1F9A95E2F72E2B22B90BC022B165
:10367000FB0102C0EE0FFF1F9A95E2F7CF01809584
:10368000822382B94F5F5F4F0894E11CF11C4830E0
:103690005105B1F6FE013596139A139840E050E0BB
:1036A00061E070E0808190E0042E02C095958795DE
:1036B0000A94E2F79C9180FF0AC022B18B0102C0FC
:1036C000000F111F9A95E2F7202B22B90BC022B1EF
:1036D0008B0102C0000F111F9A95E2F7C801809577
:1036E000822382B94F5F5F4F119644305105D1F666
:1036F000139A13988AE68A95F1F70F900F900F901E
:103700000F900F90CF91DF911F910F91FF90EF904D
:1037100008958F929F92AF92BF92CF92DF92EF92D5
:10372000FF920F931F93DF93CF9300D000D0CDB7BC
:10373000DEB7282F362F6AE00E9457288983822F10
:103740000E9457289A83832F0E9457288B83832FA8
:103750000E9457289C834E010894811C911C54019F
:1037600090E000E006C090E08A2D8819823008F0D1
:1037700091E0102F190F60E0812F80580E94FD1AF0
:10378000F50181915F0190E07C01EE0CFF1CE80ED9
:10379000F91E6701CC0CDD1CF601EC5AFD4FE491DB
:1037A00061E08E2F0E94FD1AF601EB5AFD4FE49165
:1037B00061E08E2F0E94FD1A760186E592E0E80E08
:1037C000F91EF701849161E00E94FD1A60E0812FEB
:1037D00080540E94FD1AF601E95AFD4FE49161E020
:1037E0008E2F0E94FD1AF601E85AFD4FE49161E028
:1037F0008E2F0E94FD1A89E592E0C80ED91EF601AF
:10380000849161E00E94FD1A0C5F003109F0ABCF9A
:1038100060E087E80E94FD1A61E083E00E94FD1AE3
:1038200060E088E80E94FD1A61E084E00E94FD1AD1
:1038300060E087EC0E94FD1A61E083E00E94FD1ABF
:1038400060E088EC0E94FD1A61E084E00E94FD1AAD
:1038500060E083E80E94FD1A61E080E20E94FD1AA8
:1038600060E083EC0E94FD1A61E080E20E94FD1A94
:1038700060E08CE80E94FD1A61E080E20E94FD1A7F
:1038800060E08CEC0E94FD1A61E080E20E94FD1A6B
:103890000F900F900F900F90CF91DF911F910F918C
:1038A000FF90EF90DF90CF90BF90AF909F908F9060
:1038B0000895623019F460E0815402C060E08158DC
:1038C0000E94FD1A0895CF93DF93EC01862F642F99
:1038D0000E94591C03C061E00E94FD1AFE0121965E
:1038E00084918823C1F7DF91CF910895CF93DF931F
:1038F000EC0104C0219661E00E94FD1A88818823B2
:10390000C9F7DF91CF9108951F93182F482F61E0D9
:1039100080E992E00E94631C612F81E00E94591CA3
:103920001F910895882311F05F9A08955F98089574
:103930000F931F93CF93DF938B01880F880F880F0E
:1039400060E0805C0E94FD1AC0E0D0E0F801EC0F5E
:10395000FD1F61E080810E94FD1A2196C830D105CB
:10396000A9F7DF91CF911F910F9108950F931F93A6
:10397000DF93CF93CDB7DEB728970FB6F894DEBFAD
:103980000FBECDBF579A5F9A84E0898385E08A8312
:1039900086E08B8387E08C8341E050E00C9A21B174
:1039A000CA010A8002C0880F991F0A94E2F7282BE7
:1039B00021B981B10B8002C0440F551F0A94E2F770
:1039C000842B81B90F9A0A9A099A0B9A12B8129805
:1039D00011981398579A5F9A82EE94E028EC30E0A1
:1039E000F9013197F1F70197D9F760E081E00E9482
:1039F000FD1A00E619E0C8010197F1F760E082E0E6
:103A00000E94FD1AC8010197F1F760E088E20E9468
:103A1000FD1A60E08CE00E94FD1A61E081E00E94E6
:103A2000591C80E090E0BE016F5F7F4FFC01E45EB7
:103A3000FD4FE491DB01A80FB91FEC93019688308C
:103A40009105A1F780E00E94981C80E090E0BE0103
:103A50006F5F7F4FFC01EC5DFD4FE491DB01A80F30
:103A6000B91FEC93019688309105A1F781E00E947F
:103A7000981C80E090E0BE016F5F7F4FFC01E45D29
:103A8000FD4FE491DB01A80FB91FEC93019688303C
:103A90009105A1F782E00E94981C80E090E0BE01B1
:103AA0006F5F7F4FFC01EC5CFD4FE491DB01A80FE1
:103AB000B91FEC93019688309105A1F783E00E942D
:103AC000981C80E090E0BE016F5F7F4FFC01E45CDA
:103AD000FD4FE491DB01A80FB91FEC9301968830EC
:103AE0009105A1F784E00E94981C80E090E0BE015F
:103AF0006F5F7F4FFC01EC5BFD4FE491DB01A80F92
:103B0000B91FEC93019688309105A1F785E00E94DA
:103B1000981C80E090E0BE016F5F7F4FFC01E45B8A
:103B2000FD4FE491DB01A80FB91FEC93019688309B
:103B30009105A1F786E00E94981C28960FB6F8948C
:103B4000DEBF0FBECDBFCF91DF911F910F910895C2
:103B50001F938A3049F410E061E080E20E94FD1A70
:103B60001F5F1031C9F703C061E00E94FD1A80E0B9
:103B700090E01F910895FF920F931F93182F062F27
:103B8000F42E2A9882E00E94D523812F0E94D5230B
:103B9000802F0E94D5238F2D0E94D5232A9A1F9112
:103BA0000F91FF900895462F40958095682F8BE0E8
:103BB0000E94BB1D08951F93182F289820982A9AB9
:103BC000299A229A219A549A5C9A8AE1982F9A9576
:103BD000F1F75C988A95F1F75C9A80E797E1019795
:103BE000F1F7189BFECF613011F441E001C040E0D5
:103BF00068E080E00E94BB1D40E068E983E00E942D
:103C0000BB1D612F812F0E94D31D1F9108950F931B
:103C10001F93CF93DF93062F2998EC0110E004C087
:103C200089910E94D5231F5F1017D0F3299ADF9145
:103C3000CF911F910F9108950F931F93DF93CF930F
:103C4000CDB7DEB7A1970FB6F894DEBF0FBECDBFDC
:103C5000189902C081E017C09E012F5D3F4F40E2DE
:103C600050E08E010F5F1F4FB8018B509F4F0E9495
:103C7000BD1969A1C8010E94071E89A1803211F4F3
:103C800080E001C082E0A1960FB6F894DEBF0FBEBF
:103C9000CDBFCF91DF911F910F910895CF93DF9307
:103CA000EC01CE010E941C1E8230D9F7DF91CF912A
:103CB00008951F93182F2A9883E00E94D523812FFF
:103CC0000E94D52380E00E94DA23182F80E00E9412
:103CD000DA232A9A312F20E0280F311DC9011F91C4
:103CE00008950F931F93082F8BE00E94591E492FB0
:103CF00050E0480F511D4F5F5F4F55954795112775
:103D000007FD1095401B510B4F3F510519F014F062
:103D10004FEF50E0BA0157FF02C060E070E0462F5D
:103D20008BE00E94BB1D1F910F9108958F929F926F
:103D3000AF92BF92CF92DF92EF92FF920F931F93B9
:103D4000DF93CF93CDB7DEB7C35FD0400FB6F89403
:103D5000DEBF0FBECDBF7C016B012FE031E0C20E94
:103D6000D31ED6011C92E1EFFEEFCE0EDF1EDA016C
:103D700081E890E08E0100591F4F05C0F801E60F61
:103D8000F11D208311966A2F641B019719F02C9165
:103D90002223A1F7862F90E0DE01A059BF4FA80F84
:103DA000B91F1C92E114F10429F4962F9E012159A8
:103DB0003F4F84C0FE01E159FF4FE80FF91F80819A
:103DC0008F3219F08FE28C936F5F9701DE019B9623
:103DD000762F00E0AE0140595F4FF90181858E32A8
:103DE00091F0882301F18C930F5F95968C939597B2
:103DF000FA01E70FF11D80837F5F2F5F3F4F119620
:103E00000D3059F710C0FE01E05BFF4FE00FF11DD0
:103E10008083602F6F5FFE01E059FF4FE70FF11DB8
:103E200080837F5F01C0602F9E01255D3F4FF901B8
:103E3000E00FF11D1082AE01405B5F4FFA01E60F0B
:103E4000F11D1082CE0180599F4FFC01E70FF11D3B
:103E50001082B0E2AB2EB12CA20EB31E362F10E0B2
:103E60004A01AC011DC0A32FB0E0F701EA0FFB1F10
:103E70002185222309F495C0822F81548A3110F0C4
:103E8000822F02C0822F805EF50181935F01A80D11
:103E9000B91D2C93FA01E60FF11D20833F5F1F5FD0
:103EA000612F670F3D30F8F27CC0F901E90FF11D79
:103EB00080818F3211F4892F04C091509923A9F782
:103EC00080E0DE019B969D0100E0AE0140595F4F0E
:103ED000FA01E80FF11D70817E3249F0772339F045
:103EE000F90171939F010F5F8F5F003289F78F5F38
:103EF0009E01255B3F4F10E0AE0140595F4FFA0134
:103F0000E80FF11D7081772341F0F90171939F0152
:103F10001F5F133011F08F5FF2CF093008F43FC0FC
:103F2000492F9E0120593F4FBE016F5C7F4FF90121
:103F3000E40FF11D8D9180834F5FA617B707B9F786
:103F40009A5FF901E90FF11D8EE780839F5FF90108
:103F5000E90FF11D81E380839F5FF901E90FF11DF6
:103F60008EE280839F5FD901A90FB11DFE01E55B41
:103F7000FF4F80818C939F5FD901A90FB11DFE0176
:103F8000E45BFF4F80818C939F5F290F311DFE0101
:103F9000E35BFF4F8081D9018C93692F6F5F90E0C5
:103FA00001C0932FFE01E55BFF4FDF01A10FB11DA3
:103FB0001C9280818D3609F0DCC2FE01E45BFF4F6C
:103FC0008081803709F0D5C2FE01E35BFF4F80811D
:103FD000833309F0CEC2FE01E051FF4F0083FE01A2
:103FE000EF50FF4F1083FE01EE50FF4F9083FE0114
:103FF000ED50FF4F6083FE01E059FF4FE60FF11DCA
:104000001082FE01E05BFF4FE90FF11D1082D60127
:10401000FE01BB9689EC01900D928150E1F7B6014B
:104020006B5B7F4F8E010F5E1F4F41E0C8010E9406
:10403000F818982E882309F09EC2D601AB50BF4FC6
:10404000F8018AE101900D928150E1F7EFEFF0E085
:10405000CE0EDF1EF60180819181A281B38121E025
:104060003FEFC20ED31E80389105A105B10518F4AB
:10407000ADEF9A2E80C2F5EFAF2EB12CAC0CBD1C6B
:1040800040E050E060E070E0C5010E94E7119E0151
:10409000255F3F4F43E050E0BE01695F7F4FC501A0
:1040A0000E94BD198F81893409F066C088858434E7
:1040B00009F062C08985833309F05EC040E050E0BA
:1040C00060E070E0C5010E94E711188AE2E0EE2E80
:1040D000F12CEC0EFD1E8E010F5F1F4F970141E08A
:1040E00050E0B801C5010E94BD193E853F872D856E
:1040F0002E879C859D8789818C878233C1F5943575
:10410000B1F52934A1F5343591F5970144E050E03B
:10411000BE01645F7F4FC5010E94BD198F8581502C
:10412000F601E851FF4F80838F3110F08EE18083DC
:10413000970143E050E0BE01645F7F4FC5010E94DC
:10414000BD19860108511F4FD8014C91B601675324
:104150007F4F970150E0C5010E94BD19F801808191
:10416000F601E80FF11DE753FF4F108264C08A810A
:10417000882309F0B3CF4BC04FEF50E0C40ED51EDB
:10418000D6014D915D916D917C91E1E0FFEFCE0EF6
:10419000DF1E4058504060407040C5010E94E7114A
:1041A0009E01205F3F4F43E050E0BE01645F7F4FC0
:1041B000C5010E94BD198C85843549F58D858134F2
:1041C00031F58E85873419F5B60167537F4F9E010F
:1041D000215F3F4F4EE150E0C5010E94BD19F6013D
:1041E000E851FF4F8EE18083D601AA51BF4F96015F
:1041F00028533F4F8C9181528E35E8F01C9280817C
:10420000815080831197A217B307A1F714C0F6015C
:10421000E851FF4F25EC30E0C20ED31ED6018C9141
:104220002BE33FEFC20ED31E8083B601C601875336
:104230009F4F0E94952540E050E060E070E0C5018E
:104240000E94E71172E0E72EF12CEC0EFD1E8E01AC
:104250000F5F1F4F970141E050E0B801C5010E9478
:10426000BD193C813B839D819C832E812D83898157
:104270008E839E7F9A3F09F075C13F3F09F072C15E
:10428000B6016F507F4F4BEF50E0C40ED51EF601C4
:1042900080819181A281B38145E05FEFC40ED51E7C
:1042A0000497A109B109FB0180839183A283B383A1
:1042B00022952F7030E040E050E08C8183FF6CC08D
:1042C000273031054105510509F4F1C02830310589
:1042D0004105510528F5233031054105510509F403
:1042E000D2C0243031054105510568F42130310533
:1042F0004105510509F4BDC0223031054105510584
:1043000009F0E8C0BBC0253031054105510509F46D
:10431000C4C0263031054105510508F0C3C0B8C0FE
:104320002B3031054105510519F12C30310541057E
:10433000510568F4293031054105510509F4C1C022
:104340002A3031054105510508F0C0C0B5C02D30F7
:10435000310541055105B1F02D30310541055105BB
:1043600060F02E3031054105510509F0B3C00FC092
:1043700020EC30E040E050E0ADC020EE30E040E026
:1043800050E0A8C020E031E040E050E0A3C020E4CD
:1043900031E040E050E09EC0273031054105510535
:1043A00009F476C0283031054105510520F5233048
:1043B00031054105510509F452C02430310541054C
:1043C000510560F42130310541055105F1F12230EC
:1043D00031054105510509F07DC03CC0253031054E
:1043E0004105510509F44AC0263031054105510502
:1043F00008F049C03EC02B3031054105510509F494
:104400005BC02C3031054105510568F42930310578
:104410004105510509F446C02A30310541055105D1
:1044200008F045C03AC02D30310541055105E1F095
:104430002D3031054105510508F443C02E303105BA
:104440004105510509F046C041C028E030E040E098
:1044500050E040C020E130E040E050E03BC028E1C7
:1044600030E040E050E036C020E930E040E050E08D
:1044700031C020E230E040E050E02CC028E230E0E3
:1044800040E050E027C020E330E040E050E022C0B0
:1044900028E330E040E050E01DC020E430E040E0A0
:1044A00050E018C020E530E040E050E013C020E6C6
:1044B00030E040E050E00EC020E730E040E050E067
:1044C00009C020E830E040E050E004C020EA30E0DD
:1044D00040E050E067E0220F331F441F551F6A95EC
:1044E000D1F789EE90E0C80ED91ED6012D933D93E9
:1044F0004D935C931397E7E1FFEFCE0EDF1EF601BD
:10450000EF50FF4F8FEF90E0C80ED91ED6016D918E
:104510007D918D919C91E080F180028113816E19D3
:104520007F09800B910B0E9476282F5F3F4F4F4FE2
:104530005F4FEEEEFFEFCE0EDF1ED6012D933D93C3
:104540004D935C93139740E050E060E070E0C5014C
:104550000E94E711E2E2F0E0CE0EDF1E81E0D6011C
:104560008C9309C08A81882309F074CE9EEF992E1E
:1045700002C099249A94892DCD50DF4F0FB6F8943C
:10458000DEBF0FBECDBFCF91DF911F910F91FF9086
:10459000EF90DF90CF90BF90AF909F908F90089555
:1045A0001092C5008CE08093C400E1ECF0E0108232
:1045B000109275051092F705109276051092740509
:1045C00010927305808180648083808180688083FD
:1045D00080818061808380818860808308951F92BC
:1045E0000F920FB60F9211248F939F93EF93FF9327
:1045F0009091760580917405981789F0E091760581
:10460000F0E0E958FA4F80818093C60080917605EA
:1046100090E001968F7790708093760502C010929B
:104620007305FF91EF919F918F910F900FBE0F90A7
:104630001F9018951F920F920FB60F9211242F936F
:104640003F938F939F93EF93FF939091C600809138
:104650007505282F30E02F5F3F4F2F773070809106
:10466000F705821741F0E0917505F0E0ED50FB4F42
:10467000908320937505FF91EF919F918F913F91CA
:104680002F910F900FBE0F901F901895FC019091E5
:1046900075058091F705981719F41082E0E01CC0A9
:1046A000809175052091F70590E080589F4F821BFF
:1046B000910960E870E00E9463288083E091F7052B
:1046C000F0E0ED50FB4FE0818091F70590E001961E
:1046D0008F7790708093F7058E2F08959C018091BD
:1046E000F705A3EFB4E0FD01E80FF11D8081F901AA
:1046F000808380917505A80FB11D8C91FB0180838B
:10470000809175052091F70590E080589F4F821B9E
:10471000910960E870E00E9463280895482F809115
:1047200074052091760590E001968F77907030E0C7
:1047300082179307A1F3E0917405F0E0E958FA4F6E
:1047400040838091740590E001968F7790708093FC
:10475000740580917305882369F44093C6008091A5
:10476000760590E001968F7790708093760581E0D2
:104770008093730508958091730508951F93182FF2
:104780008A3019F48DE00E948E23812F0E948E239F
:1047900080E090E01F91089584B1806B84B985B169
:1047A000806F85B980E58CBD08958EBD0DB407FE80
:1047B000FDCF08958EBD0DB407FEFDCF8EB50895D3
:1047C0000F931F93CF93DF93689F8001699F100D14
:1047D000789F100D1124C8010E94FC23EC01009762
:1047E00029F0A80160E070E00E947A25CE01DF91F7
:1047F000CF911F910F910895CF93DF93BC01823029
:10480000910510F462E070E0A091FA05B091FB050B
:10481000ED01E0E0F0E040E050E021C088819981C6
:104820008617970769F48A819B81309719F09383E3
:10483000828304C09093FB058093FA05FE0134C087
:104840006817790738F44115510519F08417950751
:1048500008F4AC01FE018A819B819C01E90120974B
:10486000E9F641155105A9F1CA01861B970B04977A
:1048700008F4BA01E0E0F0E02AC08D919C91119714
:1048800084179507F9F46417750781F412968D91D2
:104890009C911397309719F09383828304C090936F
:1048A000FB058093FA05FD0132964CC0CA01861BB8
:1048B000970BFD01E80FF91F6193719302978D9398
:1048C0009C9340C0FD01828193819C01D901109786
:1048D000A1F68091F8059091F905892B41F480911A
:1048E0006B0190916C019093F9058093F8054091CC
:1048F0006D0150916E014115510541F44DB75EB700
:104900008091690190916A01481B590B2091F8052B
:104910003091F905CA01821B930B8617970780F027
:10492000AB014E5F5F4F8417950750F0420F531F46
:104930005093F9054093F805F9016193719302C012
:10494000E0E0F0E0CF01DF91CF910895CF93DF93C6
:10495000009709F450C0EC0122971B821A82A091A3
:10496000FA05B091FB05109709F140E050E0AC1753
:10497000BD0708F1BB83AA83FE0121913191E20FAB
:10498000F31FAE17BF0779F48D919C911197280FF3
:10499000391F2E5F3F4F3983288312968D919C914A
:1049A00013979B838A834115510571F4D093FB05BE
:1049B000C093FA0520C012968D919C911397AD017A
:1049C000009711F0DC01D3CFFA01D383C283219188
:1049D0003191E20FF31FCE17DF0769F488819981C7
:1049E000280F391F2E5F3F4FFA01318320838A81C0
:1049F0009B8193838283DF91CF910895A0E0B0E003
:104A0000E4E0F5E20C94CF28EC01A880B980CA80DC
:104A1000DB80A114B104C104D10441F484E2A82EC6
:104A200089EDB82E8BE5C82E87E0D82EC601B501DA
:104A30002DE133EF41E050E00E94AC2827EA31E459
:104A400040E050E00E9438287B018C01C601B5018E
:104A50002DE133EF41E050E00E94AC28CA01B901DA
:104A60002CEE34EF4FEF5FEF0E9438286E0D7F1D64
:104A7000801F911F97FF04C0615070408040904894
:104A8000688379838A839B839B013F77C901CDB774
:104A9000DEB7EAE00C94EB280E94FE2408958FE62E
:104AA00091E00E94FE240895A0E0B0E080936F01A1
:104AB00090937001A0937101B0937201089581E009
:104AC00090E0F8940C94FE28FB01DC0104C08D9169
:104AD0000190801921F441505040C8F7881B990B70
:104AE0000895FB01DC0102C001900D92415050403D
:104AF000D8F70895DC0101C06D9341505040E0F7B4
:104B00000895FC018191861721F08823D9F7992710
:104B100008953197CF010895FB01DC018D9101903B
:104B200080190110D9F3990B0895FB01DC01019064
:104B30000D920020E1F70895A0E0B0E0E2EAF5E28E
:104B40000C94D5280F8118859E01255F3F4FF801F1
:104B5000838188608383A90169857A85C8010E9461
:104B6000B925F8012381277F23832096E4E00C9464
:104B7000F128ABE0B0E0EFEBF5E20C94C7283C0184
:104B80002B015A01FC0117821682838181FD03C02B
:104B90006FEF7FEFC8C19AE0892E1E010894211C97
:104BA000311CF3012381F20123FD859123FF8191C3
:104BB0002F01882309F4B4C1853239F423FD85918E
:104BC00023FF81912F01853229F4B30190E00E94E7
:104BD000AE27E7CF982FDD24CC249924FFE1FD15E3
:104BE000D0F09B3269F09C3228F4903259F0933225
:104BF00091F40EC09D3249F0903369F441E024C035
:104C000052E0D52A84E0D82A28C098E0D92A25C0C5
:104C1000E0E1DE2A22C0D7FC29C0892F80538A30E8
:104C200070F4D6FE05C0989C902C1124980E15C0E7
:104C3000C89CC02C1124C80EF0E2DF2A0EC09E32A0
:104C400029F4D6FC6DC140E4D42A07C09C3619F47F
:104C500050E8D52A02C0983649F4F20123FD959117
:104C600023FF91912F01992309F0B8CF892F855403
:104C7000833018F08052833038F444E050E0A40EC2
:104C8000B51E5FE359830FC0933631F0933779F047
:104C9000933509F056C020C0F5018081898342E038
:104CA00050E0A40EB51E710101E010E012C0F50144
:104CB000E080F180D6FC03C06FEF7FEF02C0692D6A
:104CC00070E042E050E0A40EB51EC7010E94A32789
:104CD0008C015FE7D52214C0F501E080F180D6FC9D
:104CE00003C06FEF7FEF02C0692D70E042E050E03B
:104CF000A40EB51EC7010E9498278C0150E8D52A42
:104D0000D3FE07C01AC0B30180E290E00E94AE2734
:104D1000CA948C2D90E008171907A8F30EC0F7016C
:104D2000D7FC8591D7FE81917F01B30190E00E946D
:104D3000AE27C110CA94015010400115110579F732
:104D4000ECC0943611F0993671F5D7FE08C0F50124
:104D5000E080F1800281138144E050E00AC0F50157
:104D6000808191817C010027F7FC0095102F42E0A3
:104D700050E0A40EB51E5FE6D52217FF0AC01095BD
:104D80000095F094E094E11CF11C011D111D80E8D8
:104D9000D82A2AE030E0A101C801B7010E94DA2731
:104DA000F82EF21840C0953729F41D2D1F7E2AE0F9
:104DB00030E01DC01D2D197F9F3661F0903720F423
:104DC000983509F0ADC00FC0903739F0983709F029
:104DD000A7C004C028E030E00AC0106114FD1460D0
:104DE00020E130E004C014FD166020E132E017FF3E
:104DF00008C0F501608171818281938144E050E0B7
:104E000008C0F50180819181BC0180E090E042E022
:104E100050E0A40EB51EA1010E94DA27F82EF21868
:104E20008FE7D82ED122D6FE0BC05EEFD522F91423
:104E300038F4D4FE07C0D2FC05C08FEED82202C0E1
:104E40001F2D01C0192DD4FE0DC0FE01EF0DF11D67
:104E50008081803319F499EED92208C01F5FD2FEF9
:104E600005C003C08D2D867809F01F5F0D2DD3FC82
:104E700014C0D0FE0FC01C1510F09F2C0BC09F2C2F
:104E80009C0C911A1C2D06C0B30180E290E00E9498
:104E9000AE271F5F1C15C0F304C01C1510F4C11A07
:104EA00001C0CC2404FF10C0B30180E390E00E9455
:104EB000AE2702FF1EC001FD03C088E790E002C0DC
:104EC00088E590E0B3010CC0802F867891F001FF57
:104ED00002C08BE201C080E2D7FC8DE2B30190E01A
:104EE0000E94AE2706C0B30180E390E00E94AE2787
:104EF0009A94F914C0F3FA94F101EF0DF11DB30186
:104F0000808190E00E94AE27FF20A9F706C0B30180
:104F100080E290E00E94AE27CA94CC20C1F741CE37
:104F2000F30166817781CB012B96E2E10C94E328B3
:104F3000FC010590615070400110D8F78095909564
:104F40008E0F9F1F0895FC01615070400190011069
:104F5000D8F7809590958E0F9F1F08950F931F93FC
:104F6000CF93DF938C01EB018B8181FF1BC082FF0C
:104F70000DC02E813F818C819D812817390764F4F3
:104F8000E881F9810193F983E88306C0E885F98512
:104F9000802F0995892B31F48E819F8101969F8303
:104FA0008E8302C00FEF1FEFC801DF91CF911F91D9
:104FB0000F910895FA01AA27283051F1203181F18B
:104FC000E8946F936E7F6E5F7F4F8F4F9F4FAF4F11
:104FD000B1E03ED0B4E03CD0670F781F891F9A1F24
:104FE000A11D680F791F8A1F911DA11D6A0F711DD8
:104FF000811D911DA11D20D009F468943F912AE0E4
:10500000269F11243019305D3193DEF6CF010895CB
:10501000462F4770405D4193B3E00FD0C9F7F6CFFC
:10502000462F4F70405D4A3318F0495D31FD4052C4
:10503000419302D0A9F7EACFB4E0A695979587955A
:1050400077956795BA95C9F7009761057105089539
:105050009B01AC010A2E06945795479537952795E5
:10506000BA95C9F7620F731F841F951FA01D08957D
:10507000629FD001739FF001829FE00DF11D649F3C
:10508000E00DF11D929FF00D839FF00D749FF00DC8
:10509000659FF00D9927729FB00DE11DF91F639F69
:1050A000B00DE11DF91FBD01CF0111240895991B19
:1050B00079E004C0991F961708F0961B881F7A950F
:1050C000C9F78095089597FB092E07260AD077FD2A
:1050D00004D02ED006D000201AF4709561957F4F31
:1050E0000895F6F7909581959F4F0895A1E21A2EA5
:1050F000AA1BBB1BFD010DC0AA1FBB1FEE1FFF1F7C
:10510000A217B307E407F50720F0A21BB30BE40BCB
:10511000F50B661F771F881F991F1A9469F7609512
:105120007095809590959B01AC01BD01CF010895CC
:10513000AA1BBB1B51E107C0AA1FBB1FA617B707BD
:1051400010F0A61BB70B881F991F5A95A9F78095D9
:105150009095BC01CD01089597FB092E05260ED030
:1051600057FD04D0C3DF0AD0001C38F45095409599
:10517000309521953F4F4F4F5F4F0895F6F790952B
:105180008095709561957F4F8F4F9F4F08952F9217
:105190003F924F925F926F927F928F929F92AF92C7
:1051A000BF92CF92DF92EF92FF920F931F93CF9314
:1051B000DF93CDB7DEB7CA1BDB0B0FB6F894DEBFAB
:1051C0000FBECDBF09942A88398848885F846E84D1
:1051D0007D848C849B84AA84B984C884DF80EE801B
:1051E000FD800C811B81AA81B981CE0FD11D0FB624
:1051F000F894DEBF0FBECDBFED010895F894FFCF48
:105200002F6D7033000000000200000000A81D0098
:105210000000000000000200000000BE23000000AB
:10522000004D6F6E005475657300576564005468D7
:1052300075727300467269005361740053756E0095
:10524000210125012A012E01340138013C010146CA
:10525000415400464154333200202B2C3B5B3D5DD2
:10526000222A3A3C3E3F7C7F002000FC05000001E2
:04527000000000003A
:00000001FF
