:100000000C94C9040C94E6040C94E6040C94E604E5
:100010000C94E6040C94E6040C94E6040C94E604B8
:100020000C94E6040C94E6040C94E6040C94E604A8
:100030000C94E6040C94E6040C94E6040C94E60498
:100040000C94E6040C94E6040C94E6040C94E60488
:100050000C94E6040C94E6040C94E6040C94E60478
:100060000C9413070C94E604A877A6E0F7435A35DE
:1000700085E272978FB71A6287380D67C7BE4F3E09
:100080002076378F68B7A9263F2B10E3307E900E7D
:10009000850A70510386400D4FEB3ECCD18735BDAC
:1000A000F50B5ED0F8F2D5E26C310CADFC21C378D3
:1000B000C106C24C55E64A3448111EDAE71A84A03C
:1000C00096A7E37FAF639CFA235B79C89EBAB2C957
:1000D00022124BB3A1B63249A2E189391066C50795
:1000E0008F54EA91CA3FF919F0D746BC281B61E842
:1000F0002F6AAE9DF64E0914774DDB1F2E7B7CF1E7
:1001000043A300B8138C85B9297588FDD2561C50BD
:100110009741E53B60B5C064EE98D62D25A4AACDE5
:100120007DA883C6ABBE4499263CCE9FBFD3CB7679
:100130007A7E82018A9A801D0EB05CD43862F430D7
:10014000E08E53B70257ACA6520A6D92651724335E
:10015000457274B1B4F75DED2CFF47375A90BBDFA1
:100160002A165995D9C4276773C768FEA5DD6B5F4A
:1001700093D8EC053A8D6EFB3DA96936F394DEEF1A
:10018000156F8B9B080FDC81182004E471CFE92BDD
:10019000425801A0A962D63F85A7B6D4FA156617C2
:1001A00009BD5D14342659729154064FF8B05B7442
:1001B00093998CF245CDEA4EAD104AE5CAEEDFC602
:1001C0006F9F888E02CC08A877946D21B128E439FE
:1001D0007996607181162EE678B9C4469A42AEB718
:1001E0007C43B3221A86C2323D2D9CD229E9639BFF
:1001F000D131385E1E3641BB03182B3EBF6861FC0F
:1002000052C0DEE00A58135A00BE1C900E5312FD75
:10021000E26EBACE2427447F87A3A1D55040E3F9EC
:1002200083F7C7A235C8DB19AB2F1125ED339E55D7
:10023000E148AF7384DA2AAA51EB9D95B2CBE770FF
:1002400080FE4C6504EFC5F1C33AB4F55F2389DD48
:1002500030A58BD3F6DC4D64D7F08FEC56375CA419
:100260000D07768A2C0BB5D8C11FE83BF44B1B4712
:100270006C49677B92CF757E20D97D3C977AD005FB
:100280006B0F1DFB8298578DF36ABCACC9A6FFB8F3
:10029000690C4C4D72075A49338DA2AB463D630D34
:1002A000A097FFF0F5FAC0E9DB62E4E17443DC8675
:1002B000182937F406E2ED6F90481E2D1DEA73945D
:1002C00054DF25F64727D91177C9841C5B5C51811F
:1002D000A6223E2496C88AEC827C09B8454A57BBC0
:1002E0002F50758E61708C6CAFD0FDB41BAEDEFEEE
:1002F0003BB536BD55010E9C41565FB3260383BA0C
:10030000134BCAC50AF860A5B9C7C39832FB12F9E6
:10031000A792AA68F3787E05202102E8BFF2B059BF
:100320008FD2CB876515F11AB230ADEE58A38B662C
:100330001F2CD75D1985A8E6D36BA10C91936A5E3B
:100340000B79E3DD004F3C896E7169A9AC40E599FA
:1003500028C6314E7ACD089E7DEF17FC88D8A46D53
:100360004495D1B7D49BBE2A34642BCF2EEB38CE24
:1003700023E03A3FF77B9F1053BC526716E7807625
:1003800004C4B6C1C27F9ADAD53942149DB10F3583
:10039000D6CCB9DA380CA29C091F06B1B6FD1A6991
:1003A0002330C4DE01D1F45829371C7DD5BFFFBDF1
:1003B000C8C9CF65BE7B7897986708B32657F7FA08
:1003C00040AD8E75A67CDB918B5199D4177A908DB8
:1003D000CE63CB4EA0AB183A5B507F2174C1BBB843
:1003E000B7BA0B359531599A4D04071E5A7613F357
:1003F0007183D08603A83942AA28E6E4D85DD3D019
:100400006E6F96FB5EBC56C25F859BE7AFD23B84A6
:100410006AA753C54449A5F936723D2CD91BA1F5ED
:100420004F939D68474116CA2A4CA387D6E5192EDB
:1004300077156D70C0DFB20046EDC66C4360922D3B
:10044000A922458F3455AEA40A6632E0DC02ACE83E
:10045000208C89624AFEEEC3E33CF17905E9F62778
:1004600033CCF29E11817E80108A829F480DD7B4D2
:10047000FC2FB5C7DD88146B2B54EA1D945CB0EFDC
:100480001224CDEBE1E264733F0E5261253EF80F7A
:100490004BECC00030F602493D106E20C9A62FFE7D
:1004A0002C2B752E4526AB48A980FC04CCD3B5BABD
:1004B000A338317D01D9A77B96B663694EF7DEE09C
:1004C00078CA50AA41916588E42185DA3A27BE1C92
:1004D0003E425E17527F1F89246F8F5C67740E1235
:1004E000878DE934ED73C4F8615B05DF594C97796A
:1004F0008318A45595EBBD53F5F15766469FB2811D
:100500000951862216DD23937629C2D71DD4BF3622
:100510003FEA4B1132B9625460D66D439A0D929CFA
:10052000B0EF586C9D772D70FAF3B30BE2407EF478
:100530008AE58C3C5671D164E1820ACB131590ECAC
:100540000399AF145D0F334A94A5A8351BE36AC61F
:1005500028FF4DE72584AC08AEC5A22AB8370C7A2F
:10056000A0C3CEAD061A9E8BFBD5D0C11ED0B49BC6
:10057000B144F247C768CF72BB4F5AF9DC6BDBD28C
:10058000E87CC8EE98A1E6D839075FFD8E19B73B25
:10059000BCCD7CE38173B211BF6F2098FE7596EFDE
:1005A0006CDA50E109725445BA34805BED3E532C4D
:1005B00087A457F3333F3CB767B4A325604F076B5D
:1005C0001B47150FE40AEAD1327836498D4BD2BC6D
:1005D000A5DC1D0D4DCD9A825FFC9465BEE2F4C989
:1005E0001E44CB9E0C64712663B314E840708A0EDF
:1005F00019426DAC88105CDF41A9ADE5FB74CCD528
:10060000068E5986CE1F3D76E08FB977277BA6D818
:1006100029D3ECB813F7FAC3516ADE4A5AEBC28BFE
:10062000234892CF62A899F8D02E856143C8BDF0C7
:100630000593CA4EF17D30FDC469662F08B152F9A9
:1006400021E67A2BDD3984FFC091D637D47F2D9BEC
:100650005DA13B6EB5C54604F590EE7E831C035646
:10066000B6AA0017013555790B12BB1A31E70228DB
:1006700016C1F6A2DB189C89683897ABC72AD73A0F
:10068000F2C6244CB058A0225E9DD9A7E9AEAF8C2B
:10069000959F28B720D7B030C30919C067D6003C52
:1006A0007EE7E9F4085AF8B82E05A6259E5CD81511
:1006B0000DE1F611546BCD2146665E84AD063829F6
:1006C00044C5A2CEF1AAC1407186B5EFFC36A8CBD5
:1006D0000A48274564A3AF8CB2C69F0789DC17D3AD
:1006E0004979FBFE1DD0B9884352BC01782B7D941B
:1006F000C70EDEA5D59BCCF7617AC274813903ABF6
:1007000096A037BD2D72753FC9D48E6FF98DED62FD
:10071000DB1CDF04AC1B6C144B63D0BFB482EC7BDE
:100720001A5992D21060B63D5FE6806E70C4F23501
:10073000D97CEEE541A45B50DDBB4CF31F9D5D57BA
:10074000555197E358424D9C73BAC877316926AE2C
:10075000EA8ADA22B38756FA930B341633E8E45365
:10076000BEA9B13A3EF5906ACF3B12FD8F9AA747DA
:100770009199EB0F24FF2318854E7F0CE0A1D2D175
:100780002C2A4A024F1E95688B98836D76CA653273
:10079000132FC3829AA4BA8160373435FC80A851E4
:1007A0006567ED305F10D34A272F13B92AD2CCE109
:1007B000EFAEEBBEF4BDCF43B3C58884B7DD39409F
:1007C000CE486D9B72617EE7A14E532E773BE2C906
:1007D00036221B6E73B103B24C87A9D44D0FD815C6
:1007E0006CAA18F649575DFB7A149463A011B09E69
:1007F000DE0546C8EE47DBDC24899C919729E97B1E
:10080000C1071EB8FDFEACC662984FF179E0E86BF7
:100810007856B68D045086CA6F20E6EAE576171C36
:10082000747FBC0D2C85F76696E48B753F4BD938E9
:10083000AF7CDA0B832D3132A2F51D594145BF3C07
:100840001FF8F98AD016256912999D2195AB01A64A
:10085000D7B5C07DFF580E3A92D155E3089FD63EDA
:10086000528EFAA3C702CDDF8F64198CF3A70C5EFA
:100870000A6A09F0935B42C20623EC71ADB4CBBBAC
:100880007028D51A5C33685A004490A5C4263D2BC5
:10089000F25496ADDA1FED33E18169080D0ADB35BC
:1008A000779A64D1FC78AA1BD067A0DDFA6C6371DB
:1008B0000584176A894F667FC65055926FBDE7D28F
:1008C00040728DBBEC06428AE4889D7E7A822713B3
:1008D000411AAFC8A476B4C2FE6D1CD96130B37C96
:1008E000EAF7290FF23B51C1DE5FE52A2F990B5D34
:1008F000A32B4AAB95A5D35856EE283100CC15460C
:10090000CAE686383C65F5E39FD65B094983702DBE
:1009100053A97DE2C4AC8E5EB825F4B957F3F168F3
:1009200047B2A25920CE34795C900E1EBED5222348
:10093000B1C91862162E913E078FD83F933DD49BC4
:10094000DF8521FB117497C7D7DC4C194598E94323
:10095000024BBCC3049C6BF07552A726F6C5BACFF8
:10096000B0B7AE5AA1BF038B80126E0CEBF9C04436
:1009700024EF10F8A88CE87BFF9E2CCD603687B55D
:1009800094A654733A144E011DB6FD37484D39CB29
:10099000E03211241FBECFEFD4E0DEBFCDBF11E0A7
:1009A000A0E0B1E0E0EBFFE002C005900D92A032C4
:1009B000B107D9F712E0A0E2B1E001C01D92AA335D
:1009C000B107E1F70E949E070C94D6070C94000033
:1009D0004F925F927F928F929F92AF92BF92CF92EF
:1009E000DF92EF92FF920F931F93DF93CF93CDB7D8
:1009F000DEB760970FB6F894DEBF0FBECDBF80E0C4
:100A000090E049E450E09E01295F3F4FFA01E81B66
:100A1000F90BEC5DFE4FE081F0E0EE56FF4FE49104
:100A2000D901A80FB91FEC9301968A30910571F78F
:100A300080E090E046E09E012F5F3F4FE091210172
:100A4000E49FF0011124E80FF91FE859FF4FE491EA
:100A5000D901A80FB91FEC9301968630910571F763
:100A6000A9848C842981282530E04A2D477050E0E4
:100A700078889B8468E070E0CB01841B950B29018A
:100A800002C0440C551C8A95E2F7C20102C035959C
:100A900027954A95E2F7822B871989258093390299
:100AA000BF80C8842A812C2530E04B2D477050E050
:100AB0000E85CB01841B950BF90102C0EE0FFF1FC1
:100AC0008A95E2F7CF0102C0359527954A95E2F75E
:100AD000822B8819802780933802AD852B812A27A5
:100AE00030E0EF84F7E0EF22FF24FB01EE19FF096D
:100AF000C9010E2E02C0880F991F0A94E2F70E2C2E
:100B000002C0359527950A94E2F7822B8A198B2526
:100B1000809337022C81292530E0402F477050E028
:100B2000BA84CB01841B950B290102C0440C551CCF
:100B30008A95E2F7C20102C0359527954A95E2F7FA
:100B4000822B8B198A25809336028D81C826DD245D
:100B5000A770B0E06A1B7B0BC60102C0880F991F0B
:100B60006A95E2F7BC0102C0D594C794AA95E2F752
:100B70006C296B196925609335028E81082710E076
:100B8000280102C0440C551CEA95E2F7F20102C0AC
:100B900015950795EA94E2F7E02BE819E725E0932D
:100BA000340260960FB6F894DEBF0FBECDBFCF9172
:100BB000DF911F910F91FF90EF90DF90CF90BF904A
:100BC000AF909F908F907F905F904F900895E091AD
:100BD000210124E231E0D901A80FB11D8C91F0E090
:100BE0003196FE2FEE27E80FF11D42E950E0E40FA9
:100BF000F51F749180912101260F311DD9012C918F
:100C000090E00296982F8827820F911D480F591F58
:100C1000FA01849187270895CF92DF92EF92FF9295
:100C20000F931F93DF93CF93CDB7DEB7A0970FB687
:100C3000F894DEBF0FBECDBFDE011196E8E1F1E012
:100C400088E001900D928150E1F7DE011996E0E114
:100C5000F1E088E001900D928150E1F7DE015196BC
:100C6000E8E0F1E088E001900D928150E1F7DE01CB
:100C70005996E0E0F1E088E001900D928150E1F7B3
:100C800040E050E06E010894C11CD11CF9E0EF2E49
:100C9000F12CEC0EFD1E8E010F5E1F4FBE01675E34
:100CA0007F4F90912101F601E40FF51FE081F0E004
:100CB000EC5DFE4F8081292F30E02F5F3F4FF22FF8
:100CC000EE27E80FF11DEE56FF4F9491E0912101C0
:100CD000D701A40FB51FAC91B0E0AC5DBE4F8C91B5
:100CE000F0E03296FE2FEE27E80FF11DEE56FF4F93
:100CF000E491E927DA01AC5DBD4FEC9390912101BD
:100D0000F801E40FF51FE081F0E0EC5DFE4F80811B
:100D1000292F30E02F5F3F4FF22FEE27E80FF11D14
:100D2000EE56FF4F9491E0912101DB01A40FB51F16
:100D3000AC91B0E0AC5DBE4F8C91F0E03296FE2FEE
:100D4000EE27E80FF11DEE56FF4FE491E927DA0197
:100D5000A45DBD4FEC934F5F5F4F4830510509F0E4
:100D6000A0CFA0960FB6F894DEBF0FBECDBFCF9137
:100D7000DF911F910F91FF90EF90DF90CF9008953A
:100D800020E030E0F901EC5CFD4F9081F901E2597F
:100D9000FE4F8081981711F080E008952F5F3F4F3C
:100DA0002630310579F781E008951092210119C0AC
:100DB0000E94E80420E030E0F901EC5CFD4F9081F6
:100DC000F901E259FE4F8081981731F42F5F3F4FB0
:100DD0002630310589F709C0809121018F5F80930A
:100DE000210180912101873018F30E940C06109296
:100DF00022010895282F809114028A3A91F4E091FB
:100E00002301F0E0E770F070EC5DFD4F9081E09120
:100E10002301F0E0E770F070E45DFD4F8081291B55
:100E20002827822F08951F920F920FB60F92112438
:100E30002F938F939F93EF93FF938091B90090E04E
:100E4000887F9070803B9105D1F1813B91055CF4E6
:100E5000803A910551F1883A910589F180389105E0
:100E600009F053C00DC0803C910509F44CC0883C8A
:100E7000910509F448C0883B910509F046C01FC0A0
:100E800080912001882349F0E0912301F0E08091D6
:100E9000BB00EC5DFE4F808330C08091BB0080932F
:100EA000230181E08093200130C0109220018091C5
:100EB0002301803551F581E08093220126C0E09125
:100EC0002301F0E0EC5DFE4F2081809114028A3A0C
:100ED00091F4E0912301F0E0E770F070EC5DFD4FDC
:100EE0009081E0912301F0E0E770F070E45DFD4F48
:100EF0008081291B28272093BB00809123018F5FCD
:100F00008093230102C01092200185EC8093BC00E5
:100F1000FF91EF919F918F912F910F900FBE0F90A6
:100F20001F901895E4E6F0E080818F77808385EA52
:100F30008093BA0085E48093BC00089578948091F2
:100F400064008F778093640085EA8093BA0085E41B
:100F50008093BC0085B78F7E85BF1AB88FEF8BB9A1
:100F600010921E0210921F0284EA8093200280E2F7
:100F70008093210281E08093220283E08093230208
:100F8000809122018823E1F30E94D50690EE2FEF95
:100F9000909324019093250110922601109227012D
:100FA0002093280189B180932901F2CFF894FFCFD3
:100FB00048454940424144434F4A4C4D4B4E4647B9
:100FC00046444247454043414B4D4A4F4E4C4948A9
:00000001FF
