:100000000EC026C025C024C023C022C021C020C0ED
:100010001FC01EC01DC01CC01BC01AC019C01124A7
:100020001FBECFEDCDBF10E0A0E6B0E0E2ECF2E005
:1000300002C005900D92A83BB107D9F710E0A8EBDC
:10004000B0E001C01D92A83BB107E1F70CD137C168
:10005000D7CF12BE8FEF88BB82E58ABD089582E0BC
:100060008ABD18BA0895AC0120E030E008C088B716
:10007000806188BF08B604FEFDCF2F5F3F4F241775
:100080003507A8F30895FC0148BD88B589BD12BEA7
:100090008FEF88BB82E58ABD20E030E008C088B7DA
:1000A000806188BF08B604FEFDCF2F5F3F4F261743
:1000B0003707A8F382E08ABD18BA20E030E008C014
:1000C00088B7806188BF08B604FEFDCF2F5F3F4F21
:1000D0002E173F07A8F30895282F30E002C035956A
:1000E00027956A95E2F721703070C9010895AC0137
:1000F0006AB593B71ABC83E083BF20E030E071E9B2
:1001000009C008B601FEFDCF72BF2F5F3F4F88B711
:10011000826088BF24173507A0F36ABD93BF089596
:10012000AF92BF92CF92DF92EF92FF920F931F9305
:10013000DF93CF93CDB7DEB727970FB6F894DEBF26
:100140000FBECDBF7C01862F90E067E070E0A5D0A8
:10015000F701E80FF91FDE0111963A9687E001904A
:100160000D928150E1F7D98000E010E012C0D70174
:100170004D915C91F801EE0FFF1FEE0FFF1FEE0D8A
:10018000FF1DFD9660817181828193817CDF0F5F0D
:100190001F4FF70183AD90E00817190744F300E003
:1001A00010E0CD2CDD2442E0A42EB12CAC0EBD1EFF
:1001B00024C0D7014D915C91F80133E0F595E795A6
:1001C0003A95E1F7EA0DFB1DE081F0E0802F8770A2
:1001D00002C0F595E7958A95E2F7E170F070EE0FB1
:1001E000FF1F3196EE0FFF1FEE0DFF1D6081718125
:1001F0008281938148DF0F5F1F4F0C151D05CCF2E4
:10020000F70183AD00E010E0C82EDD240FC0D70158
:100210004D915C91EE0FFF1FEE0FFF1FEE0DFF1DC6
:10022000FD9660817181828193812DDFF801EC0D53
:10023000FD1D0F5F1F4FD701DC968C9190E0E817F2
:10024000F9072CF327960FB6F894DEBF0FBECDBF8B
:10025000CF91DF911F910F91FF90EF90DF90CF90A2
:10026000BF90AF9008951F938FEF87BB18BA12BE4F
:1002700088BB82E58ABD81E083BF88E189BF13E046
:1002800060E08091B5009091B6004ADF8AB593B7DF
:100290001ABC13BF8ABD93BFF3CF5527002480FF3C
:1002A00002C0060E571F660F771F6115710521F0FA
:1002B00096958795009799F7952F802D0895F89436
:0202C000FFCF6E
:1002C200690016001500160041002002FD48B70023
:1002D200002002FD48B700002002FD48B7000020C0
:1002E20002FD48B700002002FD48B700002002FDD1
:1002F20048B700002002FD48B7000001065A01AECF
:10030200001600EF055B0156001600760E5B0156E3
:0803120000160000006000006D
:00000001FF
