:100000000C94CC040C94E9040C94E9040C94E904D9
:100010000C94E9040C94E9040C94E9040C94E904AC
:100020000C94E9040C94E9040C94E9040C94E9049C
:100030000C94E9040C94E9040C94E9040C94E9048C
:100040000C94E9040C94E9040C94E9040C94E9047C
:100050000C94E9040C94E9040C94E9040C94E9046C
:100060000C94C4060C94E90443F7E0A677A89772B1
:10007000E285355A3887621AB78F3E4FBEC7670D83
:10008000B7688F377620E3102B3F26A90A850E909C
:100090007E3000000000000070510386400D4FEBE1
:1000A0003ECCD18735BDF50B5ED0F8F2D5E26C3190
:1000B0000CADFC21C378C106C24C55E64A34481148
:1000C0001EDAE71A84A096A7E37FAF639CFA235B4E
:1000D00079C89EBAB2C922124BB3A1B63249A2E185
:1000E00089391066C5078F54EA91CA3FF919F0D7CC
:1000F00046BC281B61E82F6AAE9DF64E0914774D69
:10010000DB1F2E7B7CF143A300B8138C85B92975C6
:1001100088FDD2561C509741E53B60B5C064EE980F
:10012000D62D25A4AACD7DA883C6ABBE4499263C76
:10013000CE9FBFD3CB767A7E82018A9A801D0EB085
:100140005CD43862F430E08E53B70257ACA6520A42
:100150006D9265172433457274B1B4F75DED2CFFD1
:1001600047375A90BBDF2A165995D9C4276773C7FA
:1001700068FEA5DD6B5F93D8EC053A8D6EFB3DA95B
:100180006936F394DEEF156F8B9B080FDC81182026
:1001900004E471CFE92B425801A0A962D63F85A79C
:1001A000B6D4FA15661709BD5D14342659729154F8
:1001B000064FF8B05B7493998CF245CDEA4EAD10C2
:1001C0004AE5CAEEDFC66F9F888E02CC08A87794F6
:1001D0006D21B128E4397996607181162EE678B9DF
:1001E000C4469A42AEB77C43B3221A86C2323D2D32
:1001F0009CD229E9639BD131385E1E3641BB03187E
:100200002B3EBF6861FC52C0DEE00A58135A00BEA4
:100210001C900E5312FDE26EBACE2427447F87A3B2
:10022000A1D55040E3F983F7C7A235C8DB19AB2F3E
:100230001125ED339E55E148AF7384DA2AAA51EBBC
:100240009D95B2CBE77080FE4C6504EFC5F1C33AD3
:10025000B4F55F2389DD30A58BD3F6DC4D64D7F090
:100260008FEC56375CA40D07768A2C0BB5D8C11FCE
:10027000E83BF44B1B476C49677B92CF757E20D9D6
:100280007D3C977AD0056B0F1DFB8298578DF36AE2
:10029000BCACC9A6FFB8690C4C4D72075A49338DE6
:1002A000A2AB463D630DA097FFF0F5FAC0E9DB6213
:1002B000E4E17443DC86182937F406E2ED6F9048D8
:1002C0001E2D1DEA739454DF25F64727D91177C9EF
:1002D000841C5B5C5181A6223E2496C88AEC827CF9
:1002E00009B8454A57BB2F50758E61708C6CAFD0E2
:1002F000FDB41BAEDEFE3BB536BD55010E9C41562E
:100300005FB3260383BA134BCAC50AF860A5B9C701
:10031000C39832FB12F9A792AA68F3787E052021D0
:1003200002E8BFF2B0598FD2CB876515F11AB2300F
:10033000ADEE58A38B661F2CD75D1985A8E6D36B4D
:10034000A10C91936A5E0B79E3DD004F3C896E71DD
:1003500069A9AC40E59928C6314E7ACD089E7DEF5B
:1003600017FC88D8A46D4495D1B7D49BBE2A3464B9
:100370002BCF2EEB38CE23E03A3FF77B9F1053BCB8
:10038000526716E7807604C4B6C1C27F9ADAD539BF
:1003900042149DB10F35D6CCB9DA380CA29C091F96
:1003A00006B1B6FD1A692330C4DE01D1F4582937ED
:1003B0001C7DD5BFFFBDC8C9CF65BE7B7897986748
:1003C00008B32657F7FA40AD8E75A67CDB918B51AA
:1003D00099D4177A908DCE63CB4EA0AB183A5B5070
:1003E0007F2174C1BBB8B7BA0B359531599A4D040A
:1003F000071E5A7613F37183D08603A83942AA28C0
:10040000E6E4D85DD3D06E6F96FB5EBC56C25F85C6
:100410009BE7AFD23B846AA753C54449A5F936721E
:100420003D2CD91BA1F54F939D68474116CA2A4C14
:10043000A387D6E5192E77156D70C0DFB20046EDA3
:10044000C66C4360922DA922458F3455AEA40A662E
:1004500032E0DC02ACE8208C89624AFEEEC3E33C69
:10046000F17905E9F62733CCF29E11817E80108A5E
:10047000829F480DD7B4FC2FB5C7DD88146B2B5471
:10048000EA1D945CB0EF1224CDEBE1E264733F0E01
:100490005261253EF80F4BECC00030F602493D108A
:1004A0006E20C9A62FFE2C2B752E4526AB48A980A1
:1004B000FC04CCD3B5BAA338317D01D9A77B96B65D
:1004C00063694EF7DEE078CA50AA41916588E4215D
:1004D00085DA3A27BE1C3E425E17527F1F89246F81
:1004E0008F5C67740E12878DE934ED73C4F8615B1D
:1004F00005DF594C97798318A45595EBBD53F5F159
:100500005766469FB2810951862216DD23937629CC
:10051000C2D71DD4BF363FEA4B1132B9625460D600
:100520006D439A0D929CB0EF586C9D772D70FAF345
:10053000B30BE2407EF48AE58C3C5671D164E182D3
:100540000ACB131590EC0399AF145D0F334A94A5B1
:10055000A8351BE36AC628FF4DE72584AC08AEC565
:10056000A22AB8370C7AA0C3CEAD061A9E8BFBD553
:10057000D0C11ED0B49BB144F247C768CF72BB4F05
:100580005AF9DC6BDBD2E87CC8EE98A1E6D83907D3
:100590005FFD8E19B73BBCCD7CE38173B211BF6F99
:1005A0002098FE7596EF6CDA50E109725445BA3422
:1005B000805BED3E532C87A457F3333F3CB767B4C1
:1005C000A325604F076B1B47150FE40AEAD1327869
:1005D00036498D4BD2BCA5DC1D0D4DCD9A825FFCFA
:1005E0009465BEE2F4C91E44CB9E0C64712663B3CD
:1005F00014E840708A0E19426DAC88105CDF41A986
:10060000ADE5FB74CCD5068E5986CE1F3D76E08FC6
:10061000B977277BA6D829D3ECB813F7FAC3516A68
:10062000DE4A5AEBC28B234892CF62A899F8D02EAB
:10063000856143C8BDF00593CA4EF17D30FDC469A4
:10064000662F08B152F921E67A2BDD3984FFC0917B
:10065000D637D47F2D9B5DA13B6EB5C54604F59082
:10066000EE7E831C0356B6AA0017013555790B128E
:10067000BB1A31E7022816C1F6A2DB189C8968383C
:1006800097ABC72AD73AF2C6244CB058A0225E9D39
:10069000D9A7E9AEAF8C959F28B720D7B030C30952
:1006A00019C067D6003C7EE7E9F4085AF8B82E0571
:1006B000A6259E5CD8150DE1F611546BCD2146663A
:1006C0005E84AD06382944C5A2CEF1AAC140718628
:1006D000B5EFFC36A8CB0A48274564A3AF8CB2C659
:1006E0009F0789DC17D34979FBFE1DD0B988435297
:1006F000BC01782B7D94C70EDEA5D59BCCF7617A23
:10070000C274813903AB96A037BD2D72753FC9D431
:100710008E6FF98DED62DB1CDF04AC1B6C144B6338
:10072000D0BFB482EC7B1A5992D21060B63D5FE61E
:10073000806E70C4F235D97CEEE541A45B50DDBB20
:100740004CF31F9D5D57555197E358424D9C73BA2A
:10075000C877316926AEEA8ADA22B38756FA930B54
:10076000341633E8E453BEA9B13A3EF5906ACF3B64
:1007700012FD8F9AA7479199EB0F24FF2318854EFE
:100780007F0CE0A1D2D12C2A4A024F1E95688B988B
:10079000836D76CA6532132FC3829AA4BA816037FB
:1007A0003435FC80A8516567ED305F10D34A272FA0
:1007B00013B92AD2CCE1EFAEEBBEF4BDCF43B3C543
:1007C0008884B7DD3940CE486D9B72617EE7A14ECB
:1007D000532E773BE2C936221B6E73B103B24C87AE
:1007E000A9D44D0FD8156CAA18F649575DFB7A1499
:1007F0009463A011B09EDE0546C8EE47DBDC248979
:100800009C919729E97BC1071EB8FDFEACC6629892
:100810004FF179E0E86B7856B68D045086CA6F20A8
:10082000E6EAE576171C747FBC0D2C85F76696E426
:100830008B753F4BD938AF7CDA0B832D3132A2F563
:100840001D594145BF3C1FF8F98AD01625691299F8
:100850009D2195AB01A6D7B5C07DFF580E3A92D128
:1008600055E3089FD63E528EFAA3C702CDDF8F64B0
:10087000198CF3A70C5E0A6A09F0935B42C2062347
:10088000EC71ADB4CBBB7028D51A5C33685A004408
:1008900090A5C4263D2BF25496ADDA1FED33E181CD
:1008A00069080D0ADB35779A64D1FC78AA1BD067FA
:1008B000A0DDFA6C63710584176A894F667FC650A4
:1008C00055926FBDE7D240728DBBEC06428AE48838
:1008D0009D7E7A822713411AAFC8A476B4C2FE6DFA
:1008E0001CD96130B37CEAF7290FF23B51C1DE5FBE
:1008F000E52A2F990B5DA32B4AAB95A5D35856EE4D
:10090000283100CC1546CAE686383C65F5E39FD60B
:100910005B094983702D53A97DE2C4AC8E5EB82576
:10092000F4B957F3F16847B2A25920CE34795C90FC
:100930000E1EBED52223B1C91862162E913E078F16
:10094000D83F933DD49BDF8521FB117497C7D7DC3B
:100950004C194598E943024BBCC3049C6BF075529B
:10096000A726F6C5BACFB0B7AE5AA1BF038B801287
:100970006E0CEBF9C04424EF10F8A88CE87BFF9EC6
:100980002CCD603687B594A654733A144E011DB62B
:10099000FD37484D39CBE03211241FBECFEFD4E0F4
:1009A000DEBFCDBF11E0A0E0B1E0E8E1F0E102C0C0
:1009B00005900D92A033B107D9F713E0A0E3B1E0A1
:1009C00001C01D92A236B107E1F70E9461070C94A5
:1009D0000A080C940000982F8091C00085FFFCCF7E
:1009E0009093C60008952F923F924F925F927F920C
:1009F0008F929F92AF92BF92CF92DF92EF92FF922F
:100A00000F931F93DF93CF93CDB7DEB760970FB6E9
:100A1000F894DEBF0FBECDBF5C012A0186E0689F5F
:100A2000F0011124E859FF4FDE0111969E01295F64
:100A30003F4F84918D933196A217B307D1F720E0F1
:100A400030E0AE01495F5F4FF501E20FF31FE08137
:100A5000F0E0E856FF4FE081F0E0E491DA01A20F08
:100A6000B31FEC932F5F3F4F2A30310569F7AE84F7
:100A70008B842E81282530E04A2D477050E07F80FE
:100A80009C8468E070E0CB01841B950BD90102C007
:100A9000AA0FBB1F8A95E2F7CD0102C035952795B5
:100AA0004A95E2F7822B87198925F2018583B88858
:100AB000CF842D812C2530E04B2D477050E00985E7
:100AC000CB01841B950BD90102C0AA0FBB1F8A95CD
:100AD000E2F7CD0102C0359527954A95E2F7822BC2
:100AE000881980278483AA852C812A2730E0E8840E
:100AF000B7E0EB22FF241B012E183F08C901022C8E
:100B000002C0880F991F0A94E2F70E2C02C0359597
:100B100027950A94E2F7822B8A198B2583832B81F0
:100B2000292530E0402F477050E0BD84CB01841B65
:100B3000950BF90102C0EE0FFF1F8A95E2F7CF0176
:100B400002C0359527954A95E2F7822B8B198A25A5
:100B5000F20182838A81C826DD24A770B0E06A1B77
:100B60007B0BC60102C0880F991F6A95E2F7BC0192
:100B700002C0D594C794AA95E2F76C296B19692530
:100B800061838981082710E0F80102C0EE0FFF1F82
:100B90002A94E2F702C015950795EA94E2F7E02B54
:100BA000E819E725D201EC9360960FB6F894DEBF02
:100BB0000FBECDBFCF91DF911F910F91FF90EF90AE
:100BC000DF90CF90BF90AF909F908F907F905F907D
:100BD0004F903F902F90089528E931E0F82FE0E002
:100BE000E60FF11DE20FF31F549190E0019687701C
:100BF0009070982F8827840F911D280F391FF901B5
:100C00008491852708953F924F925F926F927F92D1
:100C10008F929F92AF92BF92CF92DF92EF92FF920C
:100C20000F931F93DF93CF93CDB7DEB7A0970FB687
:100C3000F894DEBF0FBECDBF362E2A013901DE018A
:100C40001196E8E2F1E088E001900D928150E1F721
:100C5000DE011996E0E2F1E088E001900D9281500A
:100C6000E1F7DE015196E8E1F1E088E001900D92B4
:100C70008150E1F7DE015996E0E1F1E088E0019072
:100C80000D928150E1F700E010E0F9E08F2E912CF9
:100C90008C0E9D1E5E010894A11CB11CE9E1CE2EB4
:100CA000D12CCC0EDD1E71E1E72EF12CEC0EFD1ED9
:100CB000F401E00FF11FD501A00FB11F40816C912D
:100CC000832D0E94EC05F201E00FF11F8083F601F5
:100CD000E00FF11FD701A00FB11F40816C91832D50
:100CE0000E94EC05F301E00FF11F80830F5F1F4F9F
:100CF00008301105E9F6A0960FB6F894DEBF0FBED6
:100D0000CDBFCF91DF911F910F91FF90EF90DF90BA
:100D1000CF90BF90AF909F908F907F906F905F909B
:100D20004F903F900895CF92DF92EF92FF920F93F2
:100D30001F93CF93DF936C0178018901EA01A80129
:100D4000970113C0DA01C90187709070A070B0706C
:100D5000F601E80FF91F88819081891B908589270A
:100D600089932F5F3F4F4F4F5F4FC9018E199F09E6
:100D7000861797073CF3DF91CF911F910F91FF905A
:100D8000EF90DF90CF9008951F920F920FB60F92C1
:100D900011242F933F938F939F93EF93FF93209171
:100DA000390130913A0181E0243F380798F480916D
:100DB000B900F901E35AFE4F8083C90101962091E1
:100DC000BB00FC01E35AFE4F2083019690933A0149
:100DD000809339018091B90090E0887F9070883AC3
:100DE000910539F1893A91053CF48038910559F023
:100DF0008838910591F514C0803B910511F1883B2D
:100E0000910559F51EC080913801E82FF0E09091CE
:100E1000BB00EE5AFC4F90838F5F809338011DC05A
:100E2000E0913801F0E08091BB00EF5AFC4F8083E5
:100E300014C081E080933401809100018093BB0055
:100E40000CC080913401E82FF0E0E050FF4F90811A
:100E50009093BB008F5F8093340185EC8093BC003E
:100E6000FF91EF919F918F913F912F910F900FBE26
:100E70000F901F901895E1ECF0E0808188618083ED
:100E8000E2ECF0E08081866080838FE08093C40094
:100E90001092C50085B78F7E85BFE4E6F0E08081C3
:100EA0008F77808385EA8093BA0085E48093BC00C5
:100EB0001AB81BB814B88FEF85B98FB780688FBF89
:100EC00008950E943B0790E08091C00085FFFCCF11
:100ED0009093C6009F5F9A30B9F7409139015091C5
:100EE0003A0120915B0130915C012417350768F4C9
:100EF000F901E35AFE4FE0818091C00085FFFCCFED
:100F0000E093C6002F5F3F4FF0CFFFCF6F927F92ED
:100F10008F929F92AF92BF92CF92DF92EF92FF9209
:100F20000F931F93DF93CF93CDB7DEB766970FB6BE
:100F3000F894DEBF0FBECDBF5C017B0120E030E046
:100F4000AE01435F5F4FFA01E20FF31FD701A20F1B
:100F5000B31F8C9180832F5F3F4F2A30310599F763
:100F6000D701FE0131969E01295F3F4F1A968C9161
:100F70001A9781931196E217F307C1F700E010E08A
:100F8000B7E0CB2ED12CCC0EDD1EADE06A2E712C3D
:100F90006C0E7D1E4E010894811C911CA601602FD1
:100FA000C3010E94F30446E050E0B401C6010E9470
:100FB000FD07009729F00F5F1F4F0730110571F7EC
:100FC0009501285F3F4FA501602FC7010E940306CE
:100FD00066960FB6F894DEBF0FBECDBFCF91DF91FE
:100FE0001F910F91FF90EF90DF90CF90BF90AF9047
:100FF0009F908F907F906F900895FB01DC0104C05B
:101000008D910190801921F441505040C8F7881B00
:08101000990B0895F894FFCF3D
:101018000000A42001030000000000000000000000
:1010280008050900020104030F0A0C0D0B0E060740
:1010380006040207050003010B0D0A0F0E0C090830
:00000001FF
