:020000020000FC
:100000001DC000000000000008BB2CBD2DBDB0E0ED
:10001000A12FAA0F40E6A41F4D914BBD4C914ABDA4
:100020001395A0E74C91141709F410E001E0512F4B
:10003000503019F0000F5A95FBCF189520E03FED96
:100040003DBF01E010E030E03BBD34E63ABDB0E03A
:10005000A0E658E0503031F030E03D9334E63D9377
:100060005A95F8CF38E03C9330E032B93CE039B9EA
:10007000549A30E439BF31E03EBD3FEF37BB8E9A32
:100080007894969B02C0969801C0969A5F9BFECF8B
:100090003CB13030B1F33A95A32FAA0F30E6A31F3D
:1000A0005F9BFECF3CB13D935F9BFECF3CB13C9349
:0200B000E8CF97
:00000001FF
