:020000020000FC
:1000000021C000000000000000C05FB7F89408BBEA
:100010002DBD2CBDD0E0C12FCC0F40E6C41F4991AF
:100020004BBD48814ABD1395C0E74881141709F4B8
:1000300010E001E0612F603019F0000F6A95FBCFEE
:100040005FBF189520E03FED3DBF01E010E03EE2CC
:100050003BBD35ED3ABDB0E0A0E668E0603031F080
:100060003EE23D9335ED3D936A95F8CF38E03C9301
:1000700030E032B93CE039B9549A30E439BF31E06C
:100080003EBD3FEF37BB8E9A7894969B02C0969800
:1000900001C0969A5F9BFECF3CB13030B1F33A95E8
:1000A000A32FAA0F30E6A31F5F9BFECF3CB13D9369
:0A00B0005F9BFECF3CB13C93E8CF0C
:00000001FF
