:020000020000FC
:100000000EC000000000000008BB9CBD9DBD00FDAF
:1000100039C001FD42C002FD4BC003FD54C090E059
:10002000AFEDADBF01E128EB48EB68EB88EB1BE0DF
:100030003BE05BE07BE01BBD2ABDA0E0A2B9ACE0E9
:10004000A9B9549AA0E4A9BFA1E0AEBDAFE0A7BB97
:100050008E9A7894969B02C0969801C0969A5F9B60
:10006000FECFACB1A0FD07D0A1FD10D0A2FD19D0EC
:10007000A3FD22D0EFCF5F9BFECF1CB15F9BFECFD5
:100080002CB108951BBD2ABD02E018955F9BFECFE1
:100090003CB15F9BFECF4CB108953BBD4ABD04E02F
:1000A00018955F9BFECF5CB15F9BFECF6CB108954E
:1000B0005BBD6ABD08E018955F9BFECF7CB15F9B7E
:0E00C000FECF8CB108957BBD8ABD01E018957E
:00000001FF
